{
  "_format": "hh-sol-artifact-1",
  "contractName": "Buildings",
  "sourceName": "contracts/other/Buildings.sol",
  "abi": [
    {
      "anonymous": false,
      "inputs": [
        {
          "indexed": true,
          "internalType": "address",
          "name": "account",
          "type": "address"
        },
        {
          "indexed": true,
          "internalType": "address",
          "name": "operator",
          "type": "address"
        },
        {
          "indexed": false,
          "internalType": "bool",
          "name": "approved",
          "type": "bool"
        }
      ],
      "name": "ApprovalForAll",
      "type": "event"
    },
    {
      "anonymous": false,
      "inputs": [
        {
          "indexed": false,
          "internalType": "uint8",
          "name": "version",
          "type": "uint8"
        }
      ],
      "name": "Initialized",
      "type": "event"
    },
    {
      "anonymous": false,
      "inputs": [
        {
          "indexed": true,
          "internalType": "address",
          "name": "previousOwner",
          "type": "address"
        },
        {
          "indexed": true,
          "internalType": "address",
          "name": "newOwner",
          "type": "address"
        }
      ],
      "name": "OwnershipTransferred",
      "type": "event"
    },
    {
      "anonymous": false,
      "inputs": [
        {
          "indexed": true,
          "internalType": "address",
          "name": "operator",
          "type": "address"
        },
        {
          "indexed": true,
          "internalType": "address",
          "name": "from",
          "type": "address"
        },
        {
          "indexed": true,
          "internalType": "address",
          "name": "to",
          "type": "address"
        },
        {
          "indexed": false,
          "internalType": "uint256[]",
          "name": "ids",
          "type": "uint256[]"
        },
        {
          "indexed": false,
          "internalType": "uint256[]",
          "name": "values",
          "type": "uint256[]"
        }
      ],
      "name": "TransferBatch",
      "type": "event"
    },
    {
      "anonymous": false,
      "inputs": [
        {
          "indexed": true,
          "internalType": "address",
          "name": "operator",
          "type": "address"
        },
        {
          "indexed": true,
          "internalType": "address",
          "name": "from",
          "type": "address"
        },
        {
          "indexed": true,
          "internalType": "address",
          "name": "to",
          "type": "address"
        },
        {
          "indexed": false,
          "internalType": "uint256",
          "name": "id",
          "type": "uint256"
        },
        {
          "indexed": false,
          "internalType": "uint256",
          "name": "value",
          "type": "uint256"
        }
      ],
      "name": "TransferSingle",
      "type": "event"
    },
    {
      "anonymous": false,
      "inputs": [
        {
          "indexed": false,
          "internalType": "string",
          "name": "value",
          "type": "string"
        },
        {
          "indexed": true,
          "internalType": "uint256",
          "name": "id",
          "type": "uint256"
        }
      ],
      "name": "URI",
      "type": "event"
    },
    {
      "inputs": [
        {
          "internalType": "uint256",
          "name": "_id",
          "type": "uint256"
        },
        {
          "components": [
            {
              "internalType": "uint256[3]",
              "name": "price",
              "type": "uint256[3]"
            },
            {
              "internalType": "uint256[3]",
              "name": "boosts",
              "type": "uint256[3]"
            },
            {
              "internalType": "uint256",
              "name": "attack",
              "type": "uint256"
            },
            {
              "internalType": "uint256",
              "name": "health",
              "type": "uint256"
            },
            {
              "internalType": "uint256",
              "name": "craftTime",
              "type": "uint256"
            },
            {
              "internalType": "string",
              "name": "name",
              "type": "string"
            }
          ],
          "internalType": "struct Buildings.Building",
          "name": "_building",
          "type": "tuple"
        }
      ],
      "name": "addBuilding",
      "outputs": [],
      "stateMutability": "nonpayable",
      "type": "function"
    },
    {
      "inputs": [
        {
          "internalType": "address",
          "name": "account",
          "type": "address"
        },
        {
          "internalType": "uint256",
          "name": "id",
          "type": "uint256"
        }
      ],
      "name": "balanceOf",
      "outputs": [
        {
          "internalType": "uint256",
          "name": "",
          "type": "uint256"
        }
      ],
      "stateMutability": "view",
      "type": "function"
    },
    {
      "inputs": [
        {
          "internalType": "address[]",
          "name": "accounts",
          "type": "address[]"
        },
        {
          "internalType": "uint256[]",
          "name": "ids",
          "type": "uint256[]"
        }
      ],
      "name": "balanceOfBatch",
      "outputs": [
        {
          "internalType": "uint256[]",
          "name": "",
          "type": "uint256[]"
        }
      ],
      "stateMutability": "view",
      "type": "function"
    },
    {
      "inputs": [
        {
          "internalType": "uint256",
          "name": "",
          "type": "uint256"
        }
      ],
      "name": "buildings",
      "outputs": [
        {
          "internalType": "uint256",
          "name": "attack",
          "type": "uint256"
        },
        {
          "internalType": "uint256",
          "name": "health",
          "type": "uint256"
        },
        {
          "internalType": "uint256",
          "name": "craftTime",
          "type": "uint256"
        },
        {
          "internalType": "string",
          "name": "name",
          "type": "string"
        }
      ],
      "stateMutability": "view",
      "type": "function"
    },
    {
      "inputs": [],
      "name": "gameDiamond",
      "outputs": [
        {
          "internalType": "address",
          "name": "",
          "type": "address"
        }
      ],
      "stateMutability": "view",
      "type": "function"
    },
    {
      "inputs": [
        {
          "internalType": "uint256",
          "name": "_buildingId",
          "type": "uint256"
        }
      ],
      "name": "getBoosts",
      "outputs": [
        {
          "internalType": "uint256[3]",
          "name": "",
          "type": "uint256[3]"
        }
      ],
      "stateMutability": "view",
      "type": "function"
    },
    {
      "inputs": [
        {
          "internalType": "uint256",
          "name": "_buildingId",
          "type": "uint256"
        }
      ],
      "name": "getCraftTime",
      "outputs": [
        {
          "internalType": "uint256",
          "name": "",
          "type": "uint256"
        }
      ],
      "stateMutability": "view",
      "type": "function"
    },
    {
      "inputs": [
        {
          "internalType": "uint256",
          "name": "_buildingId",
          "type": "uint256"
        }
      ],
      "name": "getPrice",
      "outputs": [
        {
          "internalType": "uint256[3]",
          "name": "",
          "type": "uint256[3]"
        }
      ],
      "stateMutability": "view",
      "type": "function"
    },
    {
      "inputs": [
        {
          "internalType": "address",
          "name": "_gameDiamond",
          "type": "address"
        }
      ],
      "name": "initialize",
      "outputs": [],
      "stateMutability": "nonpayable",
      "type": "function"
    },
    {
      "inputs": [
        {
          "internalType": "address",
          "name": "account",
          "type": "address"
        },
        {
          "internalType": "address",
          "name": "operator",
          "type": "address"
        }
      ],
      "name": "isApprovedForAll",
      "outputs": [
        {
          "internalType": "bool",
          "name": "",
          "type": "bool"
        }
      ],
      "stateMutability": "view",
      "type": "function"
    },
    {
      "inputs": [
        {
          "internalType": "address",
          "name": "_account",
          "type": "address"
        },
        {
          "internalType": "uint256",
          "name": "_buildingId",
          "type": "uint256"
        }
      ],
      "name": "mint",
      "outputs": [],
      "stateMutability": "nonpayable",
      "type": "function"
    },
    {
      "inputs": [],
      "name": "owner",
      "outputs": [
        {
          "internalType": "address",
          "name": "",
          "type": "address"
        }
      ],
      "stateMutability": "view",
      "type": "function"
    },
    {
      "inputs": [],
      "name": "renounceOwnership",
      "outputs": [],
      "stateMutability": "nonpayable",
      "type": "function"
    },
    {
      "inputs": [
        {
          "internalType": "address",
          "name": "from",
          "type": "address"
        },
        {
          "internalType": "address",
          "name": "to",
          "type": "address"
        },
        {
          "internalType": "uint256[]",
          "name": "ids",
          "type": "uint256[]"
        },
        {
          "internalType": "uint256[]",
          "name": "amounts",
          "type": "uint256[]"
        },
        {
          "internalType": "bytes",
          "name": "data",
          "type": "bytes"
        }
      ],
      "name": "safeBatchTransferFrom",
      "outputs": [],
      "stateMutability": "nonpayable",
      "type": "function"
    },
    {
      "inputs": [
        {
          "internalType": "address",
          "name": "from",
          "type": "address"
        },
        {
          "internalType": "address",
          "name": "to",
          "type": "address"
        },
        {
          "internalType": "uint256",
          "name": "id",
          "type": "uint256"
        },
        {
          "internalType": "uint256",
          "name": "amount",
          "type": "uint256"
        },
        {
          "internalType": "bytes",
          "name": "data",
          "type": "bytes"
        }
      ],
      "name": "safeTransferFrom",
      "outputs": [],
      "stateMutability": "nonpayable",
      "type": "function"
    },
    {
      "inputs": [
        {
          "internalType": "address",
          "name": "_gameDiamond",
          "type": "address"
        }
      ],
      "name": "setAddresses",
      "outputs": [],
      "stateMutability": "nonpayable",
      "type": "function"
    },
    {
      "inputs": [
        {
          "internalType": "address",
          "name": "operator",
          "type": "address"
        },
        {
          "internalType": "bool",
          "name": "approved",
          "type": "bool"
        }
      ],
      "name": "setApprovalForAll",
      "outputs": [],
      "stateMutability": "nonpayable",
      "type": "function"
    },
    {
      "inputs": [
        {
          "internalType": "string",
          "name": "__uri",
          "type": "string"
        }
      ],
      "name": "setUri",
      "outputs": [],
      "stateMutability": "nonpayable",
      "type": "function"
    },
    {
      "inputs": [
        {
          "internalType": "bytes4",
          "name": "interfaceId",
          "type": "bytes4"
        }
      ],
      "name": "supportsInterface",
      "outputs": [
        {
          "internalType": "bool",
          "name": "",
          "type": "bool"
        }
      ],
      "stateMutability": "view",
      "type": "function"
    },
    {
      "inputs": [
        {
          "internalType": "address",
          "name": "newOwner",
          "type": "address"
        }
      ],
      "name": "transferOwnership",
      "outputs": [],
      "stateMutability": "nonpayable",
      "type": "function"
    },
    {
      "inputs": [
        {
          "internalType": "uint256",
          "name": "",
          "type": "uint256"
        }
      ],
      "name": "uri",
      "outputs": [
        {
          "internalType": "string",
          "name": "",
          "type": "string"
        }
      ],
      "stateMutability": "view",
      "type": "function"
    }
  ],
  "bytecode": "0x608060405234801561001057600080fd5b50613dc7806100206000396000f3fe608060405234801561001057600080fd5b50600436106101365760003560e01c8063715018a6116100b8578063c4d66de81161007c578063c4d66de81461035e578063e75722301461037a578063e985e9c5146103aa578063f242432a146103da578063f2fde38b146103f6578063f7c0d44f1461041257610136565b8063715018a6146102e257806381d3c435146102ec5780638da5cb5b146103085780639b642de114610326578063a22cb4651461034257610136565b80633d7a9ff6116100ff5780633d7a9ff61461021757806340c10f19146102335780634c96a0621461024f5780634e1273f4146102825780636b9d8415146102b257610136565b8062fdd58e1461013b57806301ffc9a71461016b5780630e89341c1461019b578063278e2f68146101cb5780632eb2c2d6146101fb575b600080fd5b61015560048036038101906101509190612013565b610430565b6040516101629190612062565b60405180910390f35b610185600480360381019061018091906120d5565b6104f9565b604051610192919061211d565b60405180910390f35b6101b560048036038101906101b09190612138565b6105db565b6040516101c291906121f5565b60405180910390f35b6101e560048036038101906101e09190612138565b61066f565b6040516101f29190612062565b60405180910390f35b61021560048036038101906102109190612414565b61068f565b005b610231600480360381019061022c9190612508565b610730565b005b61024d60048036038101906102489190612013565b61075f565b005b61026960048036038101906102649190612138565b61080f565b6040516102799493929190612564565b60405180910390f35b61029c60048036038101906102979190612673565b6108c7565b6040516102a991906127a9565b60405180910390f35b6102cc60048036038101906102c79190612138565b6109e0565b6040516102d9919061284f565b60405180910390f35b6102ea610a41565b005b6103066004803603810190610301919061286a565b610a55565b005b610310610aa1565b60405161031d91906128a6565b60405180910390f35b610340600480360381019061033b919061291c565b610acb565b005b61035c60048036038101906103579190612995565b610ae9565b005b6103786004803603810190610373919061286a565b610aff565b005b610394600480360381019061038f9190612138565b610c97565b6040516103a1919061284f565b60405180910390f35b6103c460048036038101906103bf91906129d5565b610cf8565b6040516103d1919061211d565b60405180910390f35b6103f460048036038101906103ef9190612a15565b610d8c565b005b610410600480360381019061040b919061286a565b610e2d565b005b61041a610eb0565b60405161042791906128a6565b60405180910390f35b60008073ffffffffffffffffffffffffffffffffffffffff168373ffffffffffffffffffffffffffffffffffffffff16036104a0576040517f08c379a000000000000000000000000000000000000000000000000000000000815260040161049790612b1e565b60405180910390fd5b6065600083815260200190815260200160002060008473ffffffffffffffffffffffffffffffffffffffff1673ffffffffffffffffffffffffffffffffffffffff16815260200190815260200160002054905092915050565b60007fd9b67a26000000000000000000000000000000000000000000000000000000007bffffffffffffffffffffffffffffffffffffffffffffffffffffffff1916827bffffffffffffffffffffffffffffffffffffffffffffffffffffffff191614806105c457507f0e89341c000000000000000000000000000000000000000000000000000000007bffffffffffffffffffffffffffffffffffffffffffffffffffffffff1916827bffffffffffffffffffffffffffffffffffffffffffffffffffffffff1916145b806105d457506105d382610ed6565b5b9050919050565b606060cb80546105ea90612b6d565b80601f016020809104026020016040519081016040528092919081815260200182805461061690612b6d565b80156106635780601f1061063857610100808354040283529160200191610663565b820191906000526020600020905b81548152906001019060200180831161064657829003601f168201915b50505050509050919050565b600060ca6000838152602001908152602001600020600801549050919050565b610697610f40565b73ffffffffffffffffffffffffffffffffffffffff168573ffffffffffffffffffffffffffffffffffffffff1614806106dd57506106dc856106d7610f40565b610cf8565b5b61071c576040517f08c379a000000000000000000000000000000000000000000000000000000000815260040161071390612c10565b60405180910390fd5b6107298585858585610f48565b5050505050565b61073861126c565b8060ca60008481526020019081526020016000208181610758919061320d565b9050505050565b60c960009054906101000a900473ffffffffffffffffffffffffffffffffffffffff1673ffffffffffffffffffffffffffffffffffffffff163373ffffffffffffffffffffffffffffffffffffffff16146107ef576040517f08c379a00000000000000000000000000000000000000000000000000000000081526004016107e690613267565b60405180910390fd5b61080b82826001604051806020016040528060008152506112ea565b5050565b60ca60205280600052604060002060009150905080600601549080600701549080600801549080600901805461084490612b6d565b80601f016020809104026020016040519081016040528092919081815260200182805461087090612b6d565b80156108bd5780601f10610892576101008083540402835291602001916108bd565b820191906000526020600020905b8154815290600101906020018083116108a057829003601f168201915b5050505050905084565b6060815183511461090d576040517f08c379a0000000000000000000000000000000000000000000000000000000008152600401610904906132f9565b60405180910390fd5b6000835167ffffffffffffffff81111561092a5761092961221c565b5b6040519080825280602002602001820160405280156109585781602001602082028036833780820191505090505b50905060005b84518110156109d5576109a585828151811061097d5761097c613319565b5b602002602001015185838151811061099857610997613319565b5b6020026020010151610430565b8282815181106109b8576109b7613319565b5b602002602001018181525050806109ce90613348565b905061095e565b508091505092915050565b6109e8611f49565b60ca6000838152602001908152602001600020600301600380602002604051908101604052809291908260038015610a35576020028201915b815481526020019060010190808311610a21575b50505050509050919050565b610a4961126c565b610a53600061149b565b565b610a5d61126c565b8060c960006101000a81548173ffffffffffffffffffffffffffffffffffffffff021916908373ffffffffffffffffffffffffffffffffffffffff16021790555050565b6000609760009054906101000a900473ffffffffffffffffffffffffffffffffffffffff16905090565b610ad361126c565b818160cb9182610ae4929190613077565b505050565b610afb610af4610f40565b8383611561565b5050565b60008060019054906101000a900460ff16159050808015610b305750600160008054906101000a900460ff1660ff16105b80610b5d5750610b3f306116cd565b158015610b5c5750600160008054906101000a900460ff1660ff16145b5b610b9c576040517f08c379a0000000000000000000000000000000000000000000000000000000008152600401610b9390613402565b60405180910390fd5b60016000806101000a81548160ff021916908360ff1602179055508015610bd9576001600060016101000a81548160ff0219169083151502179055505b610bf1604051806020016040528060008152506116f0565b610bf961174b565b8160c960006101000a81548173ffffffffffffffffffffffffffffffffffffffff021916908373ffffffffffffffffffffffffffffffffffffffff1602179055508015610c935760008060016101000a81548160ff0219169083151502179055507f7f26b83ff96e1f2b6a682f133852f6798a09c465da95921460cefb38474024986001604051610c8a919061346a565b60405180910390a15b5050565b610c9f611f49565b60ca6000838152602001908152602001600020600001600380602002604051908101604052809291908260038015610cec576020028201915b815481526020019060010190808311610cd8575b50505050509050919050565b6000606660008473ffffffffffffffffffffffffffffffffffffffff1673ffffffffffffffffffffffffffffffffffffffff16815260200190815260200160002060008373ffffffffffffffffffffffffffffffffffffffff1673ffffffffffffffffffffffffffffffffffffffff16815260200190815260200160002060009054906101000a900460ff16905092915050565b610d94610f40565b73ffffffffffffffffffffffffffffffffffffffff168573ffffffffffffffffffffffffffffffffffffffff161480610dda5750610dd985610dd4610f40565b610cf8565b5b610e19576040517f08c379a0000000000000000000000000000000000000000000000000000000008152600401610e1090612c10565b60405180910390fd5b610e2685858585856117a4565b5050505050565b610e3561126c565b600073ffffffffffffffffffffffffffffffffffffffff168173ffffffffffffffffffffffffffffffffffffffff1603610ea4576040517f08c379a0000000000000000000000000000000000000000000000000000000008152600401610e9b906134f7565b60405180910390fd5b610ead8161149b565b50565b60c960009054906101000a900473ffffffffffffffffffffffffffffffffffffffff1681565b60007f01ffc9a7000000000000000000000000000000000000000000000000000000007bffffffffffffffffffffffffffffffffffffffffffffffffffffffff1916827bffffffffffffffffffffffffffffffffffffffffffffffffffffffff1916149050919050565b600033905090565b8151835114610f8c576040517f08c379a0000000000000000000000000000000000000000000000000000000008152600401610f8390613589565b60405180910390fd5b600073ffffffffffffffffffffffffffffffffffffffff168473ffffffffffffffffffffffffffffffffffffffff1603610ffb576040517f08c379a0000000000000000000000000000000000000000000000000000000008152600401610ff29061361b565b60405180910390fd5b6000611005610f40565b9050611015818787878787611a42565b60005b84518110156111c957600085828151811061103657611035613319565b5b60200260200101519050600085838151811061105557611054613319565b5b6020026020010151905060006065600084815260200190815260200160002060008b73ffffffffffffffffffffffffffffffffffffffff1673ffffffffffffffffffffffffffffffffffffffff168152602001908152602001600020549050818110156110f7576040517f08c379a00000000000000000000000000000000000000000000000000000000081526004016110ee906136ad565b60405180910390fd5b8181036065600085815260200190815260200160002060008c73ffffffffffffffffffffffffffffffffffffffff1673ffffffffffffffffffffffffffffffffffffffff16815260200190815260200160002081905550816065600085815260200190815260200160002060008b73ffffffffffffffffffffffffffffffffffffffff1673ffffffffffffffffffffffffffffffffffffffff16815260200190815260200160002060008282546111ae91906136cd565b92505081905550505050806111c290613348565b9050611018565b508473ffffffffffffffffffffffffffffffffffffffff168673ffffffffffffffffffffffffffffffffffffffff168273ffffffffffffffffffffffffffffffffffffffff167f4a39dc06d4c0dbc64b70af90fd698a233a518aa5d07e595d983b8c0526c8f7fb8787604051611240929190613701565b60405180910390a4611256818787878787611a4a565b611264818787878787611a52565b505050505050565b611274610f40565b73ffffffffffffffffffffffffffffffffffffffff16611292610aa1565b73ffffffffffffffffffffffffffffffffffffffff16146112e8576040517f08c379a00000000000000000000000000000000000000000000000000000000081526004016112df90613784565b60405180910390fd5b565b600073ffffffffffffffffffffffffffffffffffffffff168473ffffffffffffffffffffffffffffffffffffffff1603611359576040517f08c379a000000000000000000000000000000000000000000000000000000000815260040161135090613816565b60405180910390fd5b6000611363610f40565b9050600061137085611c29565b9050600061137d85611c29565b905061138e83600089858589611a42565b846065600088815260200190815260200160002060008973ffffffffffffffffffffffffffffffffffffffff1673ffffffffffffffffffffffffffffffffffffffff16815260200190815260200160002060008282546113ee91906136cd565b925050819055508673ffffffffffffffffffffffffffffffffffffffff16600073ffffffffffffffffffffffffffffffffffffffff168473ffffffffffffffffffffffffffffffffffffffff167fc3d58168c5ae7397731d063d5bbf3d657854427343f4c083240f7aacaa2d0f62898960405161146c929190613836565b60405180910390a461148383600089858589611a4a565b61149283600089898989611ca3565b50505050505050565b6000609760009054906101000a900473ffffffffffffffffffffffffffffffffffffffff16905081609760006101000a81548173ffffffffffffffffffffffffffffffffffffffff021916908373ffffffffffffffffffffffffffffffffffffffff1602179055508173ffffffffffffffffffffffffffffffffffffffff168173ffffffffffffffffffffffffffffffffffffffff167f8be0079c531659141344cd1fd0a4f28419497f9722a3daafe3b4186f6b6457e060405160405180910390a35050565b8173ffffffffffffffffffffffffffffffffffffffff168373ffffffffffffffffffffffffffffffffffffffff16036115cf576040517f08c379a00000000000000000000000000000000000000000000000000000000081526004016115c6906138d1565b60405180910390fd5b80606660008573ffffffffffffffffffffffffffffffffffffffff1673ffffffffffffffffffffffffffffffffffffffff16815260200190815260200160002060008473ffffffffffffffffffffffffffffffffffffffff1673ffffffffffffffffffffffffffffffffffffffff16815260200190815260200160002060006101000a81548160ff0219169083151502179055508173ffffffffffffffffffffffffffffffffffffffff168373ffffffffffffffffffffffffffffffffffffffff167f17307eab39ab6107e8899845ad3d59bd9653f200f220920489ca2b5937696c31836040516116c0919061211d565b60405180910390a3505050565b6000808273ffffffffffffffffffffffffffffffffffffffff163b119050919050565b600060019054906101000a900460ff1661173f576040517f08c379a000000000000000000000000000000000000000000000000000000000815260040161173690613963565b60405180910390fd5b61174881611e7a565b50565b600060019054906101000a900460ff1661179a576040517f08c379a000000000000000000000000000000000000000000000000000000000815260040161179190613963565b60405180910390fd5b6117a2611ed5565b565b600073ffffffffffffffffffffffffffffffffffffffff168473ffffffffffffffffffffffffffffffffffffffff1603611813576040517f08c379a000000000000000000000000000000000000000000000000000000000815260040161180a9061361b565b60405180910390fd5b600061181d610f40565b9050600061182a85611c29565b9050600061183785611c29565b9050611847838989858589611a42565b60006065600088815260200190815260200160002060008a73ffffffffffffffffffffffffffffffffffffffff1673ffffffffffffffffffffffffffffffffffffffff168152602001908152602001600020549050858110156118df576040517f08c379a00000000000000000000000000000000000000000000000000000000081526004016118d6906136ad565b60405180910390fd5b8581036065600089815260200190815260200160002060008b73ffffffffffffffffffffffffffffffffffffffff1673ffffffffffffffffffffffffffffffffffffffff16815260200190815260200160002081905550856065600089815260200190815260200160002060008a73ffffffffffffffffffffffffffffffffffffffff1673ffffffffffffffffffffffffffffffffffffffff168152602001908152602001600020600082825461199691906136cd565b925050819055508773ffffffffffffffffffffffffffffffffffffffff168973ffffffffffffffffffffffffffffffffffffffff168573ffffffffffffffffffffffffffffffffffffffff167fc3d58168c5ae7397731d063d5bbf3d657854427343f4c083240f7aacaa2d0f628a8a604051611a13929190613836565b60405180910390a4611a29848a8a86868a611a4a565b611a37848a8a8a8a8a611ca3565b505050505050505050565b505050505050565b505050505050565b611a718473ffffffffffffffffffffffffffffffffffffffff166116cd565b15611c21578373ffffffffffffffffffffffffffffffffffffffff1663bc197c8187878686866040518663ffffffff1660e01b8152600401611ab79594939291906139d8565b6020604051808303816000875af1925050508015611af357506040513d601f19601f82011682018060405250810190611af09190613a55565b60015b611b9857611aff613a8f565b806308c379a003611b5b5750611b13613ab1565b80611b1e5750611b5d565b806040517f08c379a0000000000000000000000000000000000000000000000000000000008152600401611b5291906121f5565b60405180910390fd5b505b6040517f08c379a0000000000000000000000000000000000000000000000000000000008152600401611b8f90613bb3565b60405180910390fd5b63bc197c8160e01b7bffffffffffffffffffffffffffffffffffffffffffffffffffffffff1916817bffffffffffffffffffffffffffffffffffffffffffffffffffffffff191614611c1f576040517f08c379a0000000000000000000000000000000000000000000000000000000008152600401611c1690613c45565b60405180910390fd5b505b505050505050565b60606000600167ffffffffffffffff811115611c4857611c4761221c565b5b604051908082528060200260200182016040528015611c765781602001602082028036833780820191505090505b5090508281600081518110611c8e57611c8d613319565b5b60200260200101818152505080915050919050565b611cc28473ffffffffffffffffffffffffffffffffffffffff166116cd565b15611e72578373ffffffffffffffffffffffffffffffffffffffff1663f23a6e6187878686866040518663ffffffff1660e01b8152600401611d08959493929190613c65565b6020604051808303816000875af1925050508015611d4457506040513d601f19601f82011682018060405250810190611d419190613a55565b60015b611de957611d50613a8f565b806308c379a003611dac5750611d64613ab1565b80611d6f5750611dae565b806040517f08c379a0000000000000000000000000000000000000000000000000000000008152600401611da391906121f5565b60405180910390fd5b505b6040517f08c379a0000000000000000000000000000000000000000000000000000000008152600401611de090613bb3565b60405180910390fd5b63f23a6e6160e01b7bffffffffffffffffffffffffffffffffffffffffffffffffffffffff1916817bffffffffffffffffffffffffffffffffffffffffffffffffffffffff191614611e70576040517f08c379a0000000000000000000000000000000000000000000000000000000008152600401611e6790613c45565b60405180910390fd5b505b505050505050565b600060019054906101000a900460ff16611ec9576040517f08c379a0000000000000000000000000000000000000000000000000000000008152600401611ec090613963565b60405180910390fd5b611ed281611f36565b50565b600060019054906101000a900460ff16611f24576040517f08c379a0000000000000000000000000000000000000000000000000000000008152600401611f1b90613963565b60405180910390fd5b611f34611f2f610f40565b61149b565b565b8060679081611f459190613cbf565b5050565b6040518060600160405280600390602082028036833780820191505090505090565b6000604051905090565b600080fd5b600080fd5b600073ffffffffffffffffffffffffffffffffffffffff82169050919050565b6000611faa82611f7f565b9050919050565b611fba81611f9f565b8114611fc557600080fd5b50565b600081359050611fd781611fb1565b92915050565b6000819050919050565b611ff081611fdd565b8114611ffb57600080fd5b50565b60008135905061200d81611fe7565b92915050565b6000806040838503121561202a57612029611f75565b5b600061203885828601611fc8565b925050602061204985828601611ffe565b9150509250929050565b61205c81611fdd565b82525050565b60006020820190506120776000830184612053565b92915050565b60007fffffffff0000000000000000000000000000000000000000000000000000000082169050919050565b6120b28161207d565b81146120bd57600080fd5b50565b6000813590506120cf816120a9565b92915050565b6000602082840312156120eb576120ea611f75565b5b60006120f9848285016120c0565b91505092915050565b60008115159050919050565b61211781612102565b82525050565b6000602082019050612132600083018461210e565b92915050565b60006020828403121561214e5761214d611f75565b5b600061215c84828501611ffe565b91505092915050565b600081519050919050565b600082825260208201905092915050565b60005b8381101561219f578082015181840152602081019050612184565b60008484015250505050565b6000601f19601f8301169050919050565b60006121c782612165565b6121d18185612170565b93506121e1818560208601612181565b6121ea816121ab565b840191505092915050565b6000602082019050818103600083015261220f81846121bc565b905092915050565b600080fd5b7f4e487b7100000000000000000000000000000000000000000000000000000000600052604160045260246000fd5b612254826121ab565b810181811067ffffffffffffffff821117156122735761227261221c565b5b80604052505050565b6000612286611f6b565b9050612292828261224b565b919050565b600067ffffffffffffffff8211156122b2576122b161221c565b5b602082029050602081019050919050565b600080fd5b60006122db6122d684612297565b61227c565b905080838252602082019050602084028301858111156122fe576122fd6122c3565b5b835b8181101561232757806123138882611ffe565b845260208401935050602081019050612300565b5050509392505050565b600082601f83011261234657612345612217565b5b81356123568482602086016122c8565b91505092915050565b600080fd5b600067ffffffffffffffff82111561237f5761237e61221c565b5b612388826121ab565b9050602081019050919050565b82818337600083830152505050565b60006123b76123b284612364565b61227c565b9050828152602081018484840111156123d3576123d261235f565b5b6123de848285612395565b509392505050565b600082601f8301126123fb576123fa612217565b5b813561240b8482602086016123a4565b91505092915050565b600080600080600060a086880312156124305761242f611f75565b5b600061243e88828901611fc8565b955050602061244f88828901611fc8565b945050604086013567ffffffffffffffff8111156124705761246f611f7a565b5b61247c88828901612331565b935050606086013567ffffffffffffffff81111561249d5761249c611f7a565b5b6124a988828901612331565b925050608086013567ffffffffffffffff8111156124ca576124c9611f7a565b5b6124d6888289016123e6565b9150509295509295909350565b600080fd5b600061014082840312156124ff576124fe6124e3565b5b81905092915050565b6000806040838503121561251f5761251e611f75565b5b600061252d85828601611ffe565b925050602083013567ffffffffffffffff81111561254e5761254d611f7a565b5b61255a858286016124e8565b9150509250929050565b60006080820190506125796000830187612053565b6125866020830186612053565b6125936040830185612053565b81810360608301526125a581846121bc565b905095945050505050565b600067ffffffffffffffff8211156125cb576125ca61221c565b5b602082029050602081019050919050565b60006125ef6125ea846125b0565b61227c565b90508083825260208201905060208402830185811115612612576126116122c3565b5b835b8181101561263b57806126278882611fc8565b845260208401935050602081019050612614565b5050509392505050565b600082601f83011261265a57612659612217565b5b813561266a8482602086016125dc565b91505092915050565b6000806040838503121561268a57612689611f75565b5b600083013567ffffffffffffffff8111156126a8576126a7611f7a565b5b6126b485828601612645565b925050602083013567ffffffffffffffff8111156126d5576126d4611f7a565b5b6126e185828601612331565b9150509250929050565b600081519050919050565b600082825260208201905092915050565b6000819050602082019050919050565b61272081611fdd565b82525050565b60006127328383612717565b60208301905092915050565b6000602082019050919050565b6000612756826126eb565b61276081856126f6565b935061276b83612707565b8060005b8381101561279c5781516127838882612726565b975061278e8361273e565b92505060018101905061276f565b5085935050505092915050565b600060208201905081810360008301526127c3818461274b565b905092915050565b600060039050919050565b600081905092915050565b6000819050919050565b6000602082019050919050565b612801816127cb565b61280b81846127d6565b9250612816826127e1565b8060005b8381101561284757815161282e8782612726565b9650612839836127eb565b92505060018101905061281a565b505050505050565b600060608201905061286460008301846127f8565b92915050565b6000602082840312156128805761287f611f75565b5b600061288e84828501611fc8565b91505092915050565b6128a081611f9f565b82525050565b60006020820190506128bb6000830184612897565b92915050565b600080fd5b60008083601f8401126128dc576128db612217565b5b8235905067ffffffffffffffff8111156128f9576128f86128c1565b5b602083019150836001820283011115612915576129146122c3565b5b9250929050565b6000806020838503121561293357612932611f75565b5b600083013567ffffffffffffffff81111561295157612950611f7a565b5b61295d858286016128c6565b92509250509250929050565b61297281612102565b811461297d57600080fd5b50565b60008135905061298f81612969565b92915050565b600080604083850312156129ac576129ab611f75565b5b60006129ba85828601611fc8565b92505060206129cb85828601612980565b9150509250929050565b600080604083850312156129ec576129eb611f75565b5b60006129fa85828601611fc8565b9250506020612a0b85828601611fc8565b9150509250929050565b600080600080600060a08688031215612a3157612a30611f75565b5b6000612a3f88828901611fc8565b9550506020612a5088828901611fc8565b9450506040612a6188828901611ffe565b9350506060612a7288828901611ffe565b925050608086013567ffffffffffffffff811115612a9357612a92611f7a565b5b612a9f888289016123e6565b9150509295509295909350565b7f455243313135353a2061646472657373207a65726f206973206e6f742061207660008201527f616c6964206f776e657200000000000000000000000000000000000000000000602082015250565b6000612b08602a83612170565b9150612b1382612aac565b604082019050919050565b60006020820190508181036000830152612b3781612afb565b9050919050565b7f4e487b7100000000000000000000000000000000000000000000000000000000600052602260045260246000fd5b60006002820490506001821680612b8557607f821691505b602082108103612b9857612b97612b3e565b5b50919050565b7f455243313135353a2063616c6c6572206973206e6f7420746f6b656e206f776e60008201527f6572206e6f7220617070726f7665640000000000000000000000000000000000602082015250565b6000612bfa602f83612170565b9150612c0582612b9e565b604082019050919050565b60006020820190508181036000830152612c2981612bed565b9050919050565b600060039050919050565b7f4e487b7100000000000000000000000000000000000000000000000000000000600052601160045260246000fd5b60008190506001806001038301049050919050565b6000819050919050565b600082821b905092915050565b600060088302612cc67fffffffffffffffffffffffffffffffffffffffffffffffffffffffffffffffff82612c89565b612cd08683612c89565b95508019841693508086168417925050509392505050565b6000819050919050565b6000612d0d612d08612d0384611fdd565b612ce8565b611fdd565b9050919050565b6000819050919050565b612d2783612cf2565b612d3b612d3382612d14565b848454612c96565b825550505050565b600090565b612d50612d43565b612d5b818484612d1e565b505050565b5b81811015612d7f57612d74600082612d48565b600181019050612d61565b5050565b600082821c905092915050565b81831015612dc957612da182612c6a565b612daa84612c6a565b612db383612c7f565b818101838201612dc38183612d60565b50505050505b505050565b68010000000000000000821115612de857612de761221c565b5b612df181612c30565b612dfc838284612d90565b505050565b600060039050919050565b60008135612e1981611fe7565b80915050919050565b6000819050919050565b612e3582612e01565b67ffffffffffffffff811115612e4e57612e4d61221c565b5b612e588183612dce565b612e6183612e22565b612e6a83612c7f565b6001830460005b81811015612ea9576000612e8485612e0c565b612e8d81612d14565b8092506020870196505050808285015550600181019050612e71565b50505050505050565b612ebc8282612e2c565b5050565b60008160001b9050919050565b60007fffffffffffffffffffffffffffffffffffffffffffffffffffffffffffffffff612ef984612ec0565b9350801983169250808416831791505092915050565b612f1882612cf2565b612f2b612f2482612d14565b8354612ecd565b8255505050565b600080fd5b600080fd5b600080fd5b60008083356001602003843603038112612f5e57612f5d612f32565b5b80840192508235915067ffffffffffffffff821115612f8057612f7f612f37565b5b602083019250600182023603831315612f9c57612f9b612f3c565b5b509250929050565b600082905092915050565b60008190508160005260206000209050919050565b60006020601f8301049050919050565b5b81811015612ff357612fe8600082612d48565b600181019050612fd5565b5050565b601f8211156130385761300981612faf565b61301284612fc4565b81016020851015613021578190505b61303561302d85612fc4565b830182612fd4565b50505b505050565b600061304e60001984600802612d83565b1980831691505092915050565b6000613067838361303d565b9150826002028217905092915050565b6130818383612fa4565b67ffffffffffffffff81111561309a5761309961221c565b5b6130a48254612b6d565b6130af828285612ff7565b6000601f8311600181146130de57600084156130cc578287013590505b6130d6858261305b565b86555061313e565b601f1984166130ec86612faf565b60005b82811015613114578489013582556001820191506020850194506020810190506130ef565b86831015613131578489013561312d601f89168261303d565b8355505b6001600288020188555050505b50505050505050565b613152838383613077565b505050565b60008101600083018061316a8184612eb2565b5050506003810160608301806131808184612eb2565b5050506006810160c083018061319581612e0c565b90506131a18184612f0f565b5050506007810160e08301806131b681612e0c565b90506131c28184612f0f565b505050600881016101008301806131d881612e0c565b90506131e48184612f0f565b5050506009810161012083016131fa8185612f41565b613205818386613147565b505050505050565b6132178282613157565b5050565b7f4275696c64696e67733a20726573747269637465640000000000000000000000600082015250565b6000613251601583612170565b915061325c8261321b565b602082019050919050565b6000602082019050818103600083015261328081613244565b9050919050565b7f455243313135353a206163636f756e747320616e6420696473206c656e67746860008201527f206d69736d617463680000000000000000000000000000000000000000000000602082015250565b60006132e3602983612170565b91506132ee82613287565b604082019050919050565b60006020820190508181036000830152613312816132d6565b9050919050565b7f4e487b7100000000000000000000000000000000000000000000000000000000600052603260045260246000fd5b600061335382611fdd565b91507fffffffffffffffffffffffffffffffffffffffffffffffffffffffffffffffff820361338557613384612c3b565b5b600182019050919050565b7f496e697469616c697a61626c653a20636f6e747261637420697320616c72656160008201527f647920696e697469616c697a6564000000000000000000000000000000000000602082015250565b60006133ec602e83612170565b91506133f782613390565b604082019050919050565b6000602082019050818103600083015261341b816133df565b9050919050565b6000819050919050565b600060ff82169050919050565b600061345461344f61344a84613422565b612ce8565b61342c565b9050919050565b61346481613439565b82525050565b600060208201905061347f600083018461345b565b92915050565b7f4f776e61626c653a206e6577206f776e657220697320746865207a65726f206160008201527f6464726573730000000000000000000000000000000000000000000000000000602082015250565b60006134e1602683612170565b91506134ec82613485565b604082019050919050565b60006020820190508181036000830152613510816134d4565b9050919050565b7f455243313135353a2069647320616e6420616d6f756e7473206c656e6774682060008201527f6d69736d61746368000000000000000000000000000000000000000000000000602082015250565b6000613573602883612170565b915061357e82613517565b604082019050919050565b600060208201905081810360008301526135a281613566565b9050919050565b7f455243313135353a207472616e7366657220746f20746865207a65726f20616460008201527f6472657373000000000000000000000000000000000000000000000000000000602082015250565b6000613605602583612170565b9150613610826135a9565b604082019050919050565b60006020820190508181036000830152613634816135f8565b9050919050565b7f455243313135353a20696e73756666696369656e742062616c616e636520666f60008201527f72207472616e7366657200000000000000000000000000000000000000000000602082015250565b6000613697602a83612170565b91506136a28261363b565b604082019050919050565b600060208201905081810360008301526136c68161368a565b9050919050565b60006136d882611fdd565b91506136e383611fdd565b92508282019050808211156136fb576136fa612c3b565b5b92915050565b6000604082019050818103600083015261371b818561274b565b9050818103602083015261372f818461274b565b90509392505050565b7f4f776e61626c653a2063616c6c6572206973206e6f7420746865206f776e6572600082015250565b600061376e602083612170565b915061377982613738565b602082019050919050565b6000602082019050818103600083015261379d81613761565b9050919050565b7f455243313135353a206d696e7420746f20746865207a65726f2061646472657360008201527f7300000000000000000000000000000000000000000000000000000000000000602082015250565b6000613800602183612170565b915061380b826137a4565b604082019050919050565b6000602082019050818103600083015261382f816137f3565b9050919050565b600060408201905061384b6000830185612053565b6138586020830184612053565b9392505050565b7f455243313135353a2073657474696e6720617070726f76616c2073746174757360008201527f20666f722073656c660000000000000000000000000000000000000000000000602082015250565b60006138bb602983612170565b91506138c68261385f565b604082019050919050565b600060208201905081810360008301526138ea816138ae565b9050919050565b7f496e697469616c697a61626c653a20636f6e7472616374206973206e6f74206960008201527f6e697469616c697a696e67000000000000000000000000000000000000000000602082015250565b600061394d602b83612170565b9150613958826138f1565b604082019050919050565b6000602082019050818103600083015261397c81613940565b9050919050565b600081519050919050565b600082825260208201905092915050565b60006139aa82613983565b6139b4818561398e565b93506139c4818560208601612181565b6139cd816121ab565b840191505092915050565b600060a0820190506139ed6000830188612897565b6139fa6020830187612897565b8181036040830152613a0c818661274b565b90508181036060830152613a20818561274b565b90508181036080830152613a34818461399f565b90509695505050505050565b600081519050613a4f816120a9565b92915050565b600060208284031215613a6b57613a6a611f75565b5b6000613a7984828501613a40565b91505092915050565b60008160e01c9050919050565b600060033d1115613aae5760046000803e613aab600051613a82565b90505b90565b600060443d10613b3e57613ac3611f6b565b60043d036004823e80513d602482011167ffffffffffffffff82111715613aeb575050613b3e565b808201805167ffffffffffffffff811115613b095750505050613b3e565b80602083010160043d038501811115613b26575050505050613b3e565b613b358260200185018661224b565b82955050505050505b90565b7f455243313135353a207472616e7366657220746f206e6f6e204552433131353560008201527f526563656976657220696d706c656d656e746572000000000000000000000000602082015250565b6000613b9d603483612170565b9150613ba882613b41565b604082019050919050565b60006020820190508181036000830152613bcc81613b90565b9050919050565b7f455243313135353a204552433131353552656365697665722072656a6563746560008201527f6420746f6b656e73000000000000000000000000000000000000000000000000602082015250565b6000613c2f602883612170565b9150613c3a82613bd3565b604082019050919050565b60006020820190508181036000830152613c5e81613c22565b9050919050565b600060a082019050613c7a6000830188612897565b613c876020830187612897565b613c946040830186612053565b613ca16060830185612053565b8181036080830152613cb3818461399f565b90509695505050505050565b613cc882612165565b67ffffffffffffffff811115613ce157613ce061221c565b5b613ceb8254612b6d565b613cf6828285612ff7565b600060209050601f831160018114613d295760008415613d17578287015190505b613d21858261305b565b865550613d89565b601f198416613d3786612faf565b60005b82811015613d5f57848901518255600182019150602085019450602081019050613d3a565b86831015613d7c5784890151613d78601f89168261303d565b8355505b6001600288020188555050505b50505050505056fea2646970667358221220432133c4aef2cfc3c111fd65dcc4d987a287cf9906f5e98edaf9fa4944ca974b64736f6c63430008110033",
  "linkReferences": {},
  "deployedLinkReferences": {}
}