{
  "_format": "hh-sol-artifact-1",
  "contractName": "Credits",
  "sourceName": "contracts/other/Credits.sol",
  "abi": [
    {
      "anonymous": false,
      "inputs": [
        {
          "indexed": true,
          "internalType": "address",
          "name": "owner",
          "type": "address"
        },
        {
          "indexed": true,
          "internalType": "address",
          "name": "spender",
          "type": "address"
        },
        {
          "indexed": false,
          "internalType": "uint256",
          "name": "value",
          "type": "uint256"
        }
      ],
      "name": "Approval",
      "type": "event"
    },
    {
      "anonymous": false,
      "inputs": [
        {
          "indexed": false,
          "internalType": "uint8",
          "name": "version",
          "type": "uint8"
        }
      ],
      "name": "Initialized",
      "type": "event"
    },
    {
      "anonymous": false,
      "inputs": [
        {
          "indexed": true,
          "internalType": "address",
          "name": "previousOwner",
          "type": "address"
        },
        {
          "indexed": true,
          "internalType": "address",
          "name": "newOwner",
          "type": "address"
        }
      ],
      "name": "OwnershipTransferred",
      "type": "event"
    },
    {
      "anonymous": false,
      "inputs": [
        {
          "indexed": true,
          "internalType": "address",
          "name": "from",
          "type": "address"
        },
        {
          "indexed": true,
          "internalType": "address",
          "name": "to",
          "type": "address"
        },
        {
          "indexed": false,
          "internalType": "uint256",
          "name": "value",
          "type": "uint256"
        }
      ],
      "name": "Transfer",
      "type": "event"
    },
    {
      "inputs": [
        {
          "internalType": "address",
          "name": "owner",
          "type": "address"
        },
        {
          "internalType": "address",
          "name": "spender",
          "type": "address"
        }
      ],
      "name": "allowance",
      "outputs": [
        {
          "internalType": "uint256",
          "name": "",
          "type": "uint256"
        }
      ],
      "stateMutability": "view",
      "type": "function"
    },
    {
      "inputs": [
        {
          "internalType": "address",
          "name": "spender",
          "type": "address"
        },
        {
          "internalType": "uint256",
          "name": "amount",
          "type": "uint256"
        }
      ],
      "name": "approve",
      "outputs": [
        {
          "internalType": "bool",
          "name": "",
          "type": "bool"
        }
      ],
      "stateMutability": "nonpayable",
      "type": "function"
    },
    {
      "inputs": [
        {
          "internalType": "address",
          "name": "account",
          "type": "address"
        }
      ],
      "name": "balanceOf",
      "outputs": [
        {
          "internalType": "uint256",
          "name": "",
          "type": "uint256"
        }
      ],
      "stateMutability": "view",
      "type": "function"
    },
    {
      "inputs": [
        {
          "internalType": "address",
          "name": "_account",
          "type": "address"
        },
        {
          "internalType": "uint256",
          "name": "_amount",
          "type": "uint256"
        }
      ],
      "name": "burnFrom",
      "outputs": [],
      "stateMutability": "nonpayable",
      "type": "function"
    },
    {
      "inputs": [],
      "name": "decimals",
      "outputs": [
        {
          "internalType": "uint8",
          "name": "",
          "type": "uint8"
        }
      ],
      "stateMutability": "view",
      "type": "function"
    },
    {
      "inputs": [
        {
          "internalType": "address",
          "name": "spender",
          "type": "address"
        },
        {
          "internalType": "uint256",
          "name": "subtractedValue",
          "type": "uint256"
        }
      ],
      "name": "decreaseAllowance",
      "outputs": [
        {
          "internalType": "bool",
          "name": "",
          "type": "bool"
        }
      ],
      "stateMutability": "nonpayable",
      "type": "function"
    },
    {
      "inputs": [],
      "name": "gameDiamond",
      "outputs": [
        {
          "internalType": "address",
          "name": "",
          "type": "address"
        }
      ],
      "stateMutability": "view",
      "type": "function"
    },
    {
      "inputs": [
        {
          "internalType": "address",
          "name": "spender",
          "type": "address"
        },
        {
          "internalType": "uint256",
          "name": "addedValue",
          "type": "uint256"
        }
      ],
      "name": "increaseAllowance",
      "outputs": [
        {
          "internalType": "bool",
          "name": "",
          "type": "bool"
        }
      ],
      "stateMutability": "nonpayable",
      "type": "function"
    },
    {
      "inputs": [],
      "name": "initialize",
      "outputs": [],
      "stateMutability": "nonpayable",
      "type": "function"
    },
    {
      "inputs": [
        {
          "internalType": "address",
          "name": "_account",
          "type": "address"
        },
        {
          "internalType": "uint256",
          "name": "_amount",
          "type": "uint256"
        }
      ],
      "name": "mint",
      "outputs": [],
      "stateMutability": "nonpayable",
      "type": "function"
    },
    {
      "inputs": [],
      "name": "name",
      "outputs": [
        {
          "internalType": "string",
          "name": "",
          "type": "string"
        }
      ],
      "stateMutability": "view",
      "type": "function"
    },
    {
      "inputs": [],
      "name": "owner",
      "outputs": [
        {
          "internalType": "address",
          "name": "",
          "type": "address"
        }
      ],
      "stateMutability": "view",
      "type": "function"
    },
    {
      "inputs": [],
      "name": "renounceOwnership",
      "outputs": [],
      "stateMutability": "nonpayable",
      "type": "function"
    },
    {
      "inputs": [
        {
          "internalType": "address",
          "name": "_gameDiamond",
          "type": "address"
        }
      ],
      "name": "setAddresses",
      "outputs": [],
      "stateMutability": "nonpayable",
      "type": "function"
    },
    {
      "inputs": [],
      "name": "symbol",
      "outputs": [
        {
          "internalType": "string",
          "name": "",
          "type": "string"
        }
      ],
      "stateMutability": "view",
      "type": "function"
    },
    {
      "inputs": [],
      "name": "totalSupply",
      "outputs": [
        {
          "internalType": "uint256",
          "name": "",
          "type": "uint256"
        }
      ],
      "stateMutability": "view",
      "type": "function"
    },
    {
      "inputs": [
        {
          "internalType": "address",
          "name": "to",
          "type": "address"
        },
        {
          "internalType": "uint256",
          "name": "amount",
          "type": "uint256"
        }
      ],
      "name": "transfer",
      "outputs": [
        {
          "internalType": "bool",
          "name": "",
          "type": "bool"
        }
      ],
      "stateMutability": "nonpayable",
      "type": "function"
    },
    {
      "inputs": [
        {
          "internalType": "address",
          "name": "from",
          "type": "address"
        },
        {
          "internalType": "address",
          "name": "to",
          "type": "address"
        },
        {
          "internalType": "uint256",
          "name": "amount",
          "type": "uint256"
        }
      ],
      "name": "transferFrom",
      "outputs": [
        {
          "internalType": "bool",
          "name": "",
          "type": "bool"
        }
      ],
      "stateMutability": "nonpayable",
      "type": "function"
    },
    {
      "inputs": [
        {
          "internalType": "address",
          "name": "newOwner",
          "type": "address"
        }
      ],
      "name": "transferOwnership",
      "outputs": [],
      "stateMutability": "nonpayable",
      "type": "function"
    }
  ],
  "bytecode": "0x608060405234801561001057600080fd5b5061253d806100206000396000f3fe608060405234801561001057600080fd5b50600436106101215760003560e01c806379cc6790116100ad578063a457c2d711610071578063a457c2d7146102e4578063a9059cbb14610314578063dd62ed3e14610344578063f2fde38b14610374578063f7c0d44f1461039057610121565b806379cc6790146102665780638129fc1c1461028257806381d3c4351461028c5780638da5cb5b146102a857806395d89b41146102c657610121565b8063313ce567116100f4578063313ce567146101c257806339509351146101e057806340c10f191461021057806370a082311461022c578063715018a61461025c57610121565b806306fdde0314610126578063095ea7b31461014457806318160ddd1461017457806323b872dd14610192575b600080fd5b61012e6103ae565b60405161013b919061169b565b60405180910390f35b61015e60048036038101906101599190611756565b610440565b60405161016b91906117b1565b60405180910390f35b61017c610463565b60405161018991906117db565b60405180910390f35b6101ac60048036038101906101a791906117f6565b61046d565b6040516101b991906117b1565b60405180910390f35b6101ca61049c565b6040516101d79190611865565b60405180910390f35b6101fa60048036038101906101f59190611756565b6104a5565b60405161020791906117b1565b60405180910390f35b61022a60048036038101906102259190611756565b6104dc565b005b61024660048036038101906102419190611880565b61057a565b60405161025391906117db565b60405180910390f35b6102646105c3565b005b610280600480360381019061027b9190611756565b6105d7565b005b61028a610675565b005b6102a660048036038101906102a19190611880565b610827565b005b6102b0610873565b6040516102bd91906118bc565b60405180910390f35b6102ce61089d565b6040516102db919061169b565b60405180910390f35b6102fe60048036038101906102f99190611756565b61092f565b60405161030b91906117b1565b60405180910390f35b61032e60048036038101906103299190611756565b6109a6565b60405161033b91906117b1565b60405180910390f35b61035e600480360381019061035991906118d7565b6109c9565b60405161036b91906117db565b60405180910390f35b61038e60048036038101906103899190611880565b610a50565b005b610398610ad3565b6040516103a591906118bc565b60405180910390f35b6060603680546103bd90611946565b80601f01602080910402602001604051908101604052809291908181526020018280546103e990611946565b80156104365780601f1061040b57610100808354040283529160200191610436565b820191906000526020600020905b81548152906001019060200180831161041957829003601f168201915b5050505050905090565b60008061044b610af9565b9050610458818585610b01565b600191505092915050565b6000603554905090565b600080610478610af9565b9050610485858285610cca565b610490858585610d56565b60019150509392505050565b60006012905090565b6000806104b0610af9565b90506104d18185856104c285896109c9565b6104cc91906119a6565b610b01565b600191505092915050565b609760009054906101000a900473ffffffffffffffffffffffffffffffffffffffff1673ffffffffffffffffffffffffffffffffffffffff163373ffffffffffffffffffffffffffffffffffffffff161461056c576040517f08c379a000000000000000000000000000000000000000000000000000000000815260040161056390611a26565b60405180910390fd5b6105768282610fd8565b5050565b6000603360008373ffffffffffffffffffffffffffffffffffffffff1673ffffffffffffffffffffffffffffffffffffffff168152602001908152602001600020549050919050565b6105cb611138565b6105d560006111b6565b565b609760009054906101000a900473ffffffffffffffffffffffffffffffffffffffff1673ffffffffffffffffffffffffffffffffffffffff163373ffffffffffffffffffffffffffffffffffffffff1614610667576040517f08c379a000000000000000000000000000000000000000000000000000000000815260040161065e90611a26565b60405180910390fd5b610671828261127c565b5050565b60008060019054906101000a900460ff161590508080156106a65750600160008054906101000a900460ff1660ff16105b806106d357506106b530611454565b1580156106d25750600160008054906101000a900460ff1660ff16145b5b610712576040517f08c379a000000000000000000000000000000000000000000000000000000000815260040161070990611ab8565b60405180910390fd5b60016000806101000a81548160ff021916908360ff160217905550801561074f576001600060016101000a81548160ff0219169083151502179055505b6107c36040518060400160405280600781526020017f43726564697473000000000000000000000000000000000000000000000000008152506040518060400160405280600381526020017f4344540000000000000000000000000000000000000000000000000000000000815250611477565b6107cb6114d4565b80156108245760008060016101000a81548160ff0219169083151502179055507f7f26b83ff96e1f2b6a682f133852f6798a09c465da95921460cefb3847402498600160405161081b9190611b1d565b60405180910390a15b50565b61082f611138565b80609760006101000a81548173ffffffffffffffffffffffffffffffffffffffff021916908373ffffffffffffffffffffffffffffffffffffffff16021790555050565b6000606560009054906101000a900473ffffffffffffffffffffffffffffffffffffffff16905090565b6060603780546108ac90611946565b80601f01602080910402602001604051908101604052809291908181526020018280546108d890611946565b80156109255780601f106108fa57610100808354040283529160200191610925565b820191906000526020600020905b81548152906001019060200180831161090857829003601f168201915b5050505050905090565b60008061093a610af9565b9050600061094882866109c9565b90508381101561098d576040517f08c379a000000000000000000000000000000000000000000000000000000000815260040161098490611baa565b60405180910390fd5b61099a8286868403610b01565b60019250505092915050565b6000806109b1610af9565b90506109be818585610d56565b600191505092915050565b6000603460008473ffffffffffffffffffffffffffffffffffffffff1673ffffffffffffffffffffffffffffffffffffffff16815260200190815260200160002060008373ffffffffffffffffffffffffffffffffffffffff1673ffffffffffffffffffffffffffffffffffffffff16815260200190815260200160002054905092915050565b610a58611138565b600073ffffffffffffffffffffffffffffffffffffffff168173ffffffffffffffffffffffffffffffffffffffff1603610ac7576040517f08c379a0000000000000000000000000000000000000000000000000000000008152600401610abe90611c3c565b60405180910390fd5b610ad0816111b6565b50565b609760009054906101000a900473ffffffffffffffffffffffffffffffffffffffff1681565b600033905090565b600073ffffffffffffffffffffffffffffffffffffffff168373ffffffffffffffffffffffffffffffffffffffff1603610b70576040517f08c379a0000000000000000000000000000000000000000000000000000000008152600401610b6790611cce565b60405180910390fd5b600073ffffffffffffffffffffffffffffffffffffffff168273ffffffffffffffffffffffffffffffffffffffff1603610bdf576040517f08c379a0000000000000000000000000000000000000000000000000000000008152600401610bd690611d60565b60405180910390fd5b80603460008573ffffffffffffffffffffffffffffffffffffffff1673ffffffffffffffffffffffffffffffffffffffff16815260200190815260200160002060008473ffffffffffffffffffffffffffffffffffffffff1673ffffffffffffffffffffffffffffffffffffffff168152602001908152602001600020819055508173ffffffffffffffffffffffffffffffffffffffff168373ffffffffffffffffffffffffffffffffffffffff167f8c5be1e5ebec7d5bd14f71427d1e84f3dd0314c0f7b2291e5b200ac8c7c3b92583604051610cbd91906117db565b60405180910390a3505050565b6000610cd684846109c9565b90507fffffffffffffffffffffffffffffffffffffffffffffffffffffffffffffffff8114610d505781811015610d42576040517f08c379a0000000000000000000000000000000000000000000000000000000008152600401610d3990611dcc565b60405180910390fd5b610d4f8484848403610b01565b5b50505050565b600073ffffffffffffffffffffffffffffffffffffffff168373ffffffffffffffffffffffffffffffffffffffff1603610dc5576040517f08c379a0000000000000000000000000000000000000000000000000000000008152600401610dbc90611e5e565b60405180910390fd5b600073ffffffffffffffffffffffffffffffffffffffff168273ffffffffffffffffffffffffffffffffffffffff1603610e34576040517f08c379a0000000000000000000000000000000000000000000000000000000008152600401610e2b90611ef0565b60405180910390fd5b610e3f83838361152d565b6000603360008573ffffffffffffffffffffffffffffffffffffffff1673ffffffffffffffffffffffffffffffffffffffff16815260200190815260200160002054905081811015610ec6576040517f08c379a0000000000000000000000000000000000000000000000000000000008152600401610ebd90611f82565b60405180910390fd5b818103603360008673ffffffffffffffffffffffffffffffffffffffff1673ffffffffffffffffffffffffffffffffffffffff1681526020019081526020016000208190555081603360008573ffffffffffffffffffffffffffffffffffffffff1673ffffffffffffffffffffffffffffffffffffffff1681526020019081526020016000206000828254610f5b91906119a6565b925050819055508273ffffffffffffffffffffffffffffffffffffffff168473ffffffffffffffffffffffffffffffffffffffff167fddf252ad1be2c89b69c2b068fc378daa952ba7f163c4a11628f55a4df523b3ef84604051610fbf91906117db565b60405180910390a3610fd2848484611532565b50505050565b600073ffffffffffffffffffffffffffffffffffffffff168273ffffffffffffffffffffffffffffffffffffffff1603611047576040517f08c379a000000000000000000000000000000000000000000000000000000000815260040161103e90611fee565b60405180910390fd5b6110536000838361152d565b806035600082825461106591906119a6565b9250508190555080603360008473ffffffffffffffffffffffffffffffffffffffff1673ffffffffffffffffffffffffffffffffffffffff16815260200190815260200160002060008282546110bb91906119a6565b925050819055508173ffffffffffffffffffffffffffffffffffffffff16600073ffffffffffffffffffffffffffffffffffffffff167fddf252ad1be2c89b69c2b068fc378daa952ba7f163c4a11628f55a4df523b3ef8360405161112091906117db565b60405180910390a361113460008383611532565b5050565b611140610af9565b73ffffffffffffffffffffffffffffffffffffffff1661115e610873565b73ffffffffffffffffffffffffffffffffffffffff16146111b4576040517f08c379a00000000000000000000000000000000000000000000000000000000081526004016111ab9061205a565b60405180910390fd5b565b6000606560009054906101000a900473ffffffffffffffffffffffffffffffffffffffff16905081606560006101000a81548173ffffffffffffffffffffffffffffffffffffffff021916908373ffffffffffffffffffffffffffffffffffffffff1602179055508173ffffffffffffffffffffffffffffffffffffffff168173ffffffffffffffffffffffffffffffffffffffff167f8be0079c531659141344cd1fd0a4f28419497f9722a3daafe3b4186f6b6457e060405160405180910390a35050565b600073ffffffffffffffffffffffffffffffffffffffff168273ffffffffffffffffffffffffffffffffffffffff16036112eb576040517f08c379a00000000000000000000000000000000000000000000000000000000081526004016112e2906120ec565b60405180910390fd5b6112f78260008361152d565b6000603360008473ffffffffffffffffffffffffffffffffffffffff1673ffffffffffffffffffffffffffffffffffffffff1681526020019081526020016000205490508181101561137e576040517f08c379a00000000000000000000000000000000000000000000000000000000081526004016113759061217e565b60405180910390fd5b818103603360008573ffffffffffffffffffffffffffffffffffffffff1673ffffffffffffffffffffffffffffffffffffffff1681526020019081526020016000208190555081603560008282546113d6919061219e565b92505081905550600073ffffffffffffffffffffffffffffffffffffffff168373ffffffffffffffffffffffffffffffffffffffff167fddf252ad1be2c89b69c2b068fc378daa952ba7f163c4a11628f55a4df523b3ef8460405161143b91906117db565b60405180910390a361144f83600084611532565b505050565b6000808273ffffffffffffffffffffffffffffffffffffffff163b119050919050565b600060019054906101000a900460ff166114c6576040517f08c379a00000000000000000000000000000000000000000000000000000000081526004016114bd90612244565b60405180910390fd5b6114d08282611537565b5050565b600060019054906101000a900460ff16611523576040517f08c379a000000000000000000000000000000000000000000000000000000000815260040161151a90612244565b60405180910390fd5b61152b6115aa565b565b505050565b505050565b600060019054906101000a900460ff16611586576040517f08c379a000000000000000000000000000000000000000000000000000000000815260040161157d90612244565b60405180910390fd5b81603690816115959190612435565b5080603790816115a59190612435565b505050565b600060019054906101000a900460ff166115f9576040517f08c379a00000000000000000000000000000000000000000000000000000000081526004016115f090612244565b60405180910390fd5b611609611604610af9565b6111b6565b565b600081519050919050565b600082825260208201905092915050565b60005b8381101561164557808201518184015260208101905061162a565b60008484015250505050565b6000601f19601f8301169050919050565b600061166d8261160b565b6116778185611616565b9350611687818560208601611627565b61169081611651565b840191505092915050565b600060208201905081810360008301526116b58184611662565b905092915050565b600080fd5b600073ffffffffffffffffffffffffffffffffffffffff82169050919050565b60006116ed826116c2565b9050919050565b6116fd816116e2565b811461170857600080fd5b50565b60008135905061171a816116f4565b92915050565b6000819050919050565b61173381611720565b811461173e57600080fd5b50565b6000813590506117508161172a565b92915050565b6000806040838503121561176d5761176c6116bd565b5b600061177b8582860161170b565b925050602061178c85828601611741565b9150509250929050565b60008115159050919050565b6117ab81611796565b82525050565b60006020820190506117c660008301846117a2565b92915050565b6117d581611720565b82525050565b60006020820190506117f060008301846117cc565b92915050565b60008060006060848603121561180f5761180e6116bd565b5b600061181d8682870161170b565b935050602061182e8682870161170b565b925050604061183f86828701611741565b9150509250925092565b600060ff82169050919050565b61185f81611849565b82525050565b600060208201905061187a6000830184611856565b92915050565b600060208284031215611896576118956116bd565b5b60006118a48482850161170b565b91505092915050565b6118b6816116e2565b82525050565b60006020820190506118d160008301846118ad565b92915050565b600080604083850312156118ee576118ed6116bd565b5b60006118fc8582860161170b565b925050602061190d8582860161170b565b9150509250929050565b7f4e487b7100000000000000000000000000000000000000000000000000000000600052602260045260246000fd5b6000600282049050600182168061195e57607f821691505b60208210810361197157611970611917565b5b50919050565b7f4e487b7100000000000000000000000000000000000000000000000000000000600052601160045260246000fd5b60006119b182611720565b91506119bc83611720565b92508282019050808211156119d4576119d3611977565b5b92915050565b7f437265646974733a207265737472696374656400000000000000000000000000600082015250565b6000611a10601383611616565b9150611a1b826119da565b602082019050919050565b60006020820190508181036000830152611a3f81611a03565b9050919050565b7f496e697469616c697a61626c653a20636f6e747261637420697320616c72656160008201527f647920696e697469616c697a6564000000000000000000000000000000000000602082015250565b6000611aa2602e83611616565b9150611aad82611a46565b604082019050919050565b60006020820190508181036000830152611ad181611a95565b9050919050565b6000819050919050565b6000819050919050565b6000611b07611b02611afd84611ad8565b611ae2565b611849565b9050919050565b611b1781611aec565b82525050565b6000602082019050611b326000830184611b0e565b92915050565b7f45524332303a2064656372656173656420616c6c6f77616e63652062656c6f7760008201527f207a65726f000000000000000000000000000000000000000000000000000000602082015250565b6000611b94602583611616565b9150611b9f82611b38565b604082019050919050565b60006020820190508181036000830152611bc381611b87565b9050919050565b7f4f776e61626c653a206e6577206f776e657220697320746865207a65726f206160008201527f6464726573730000000000000000000000000000000000000000000000000000602082015250565b6000611c26602683611616565b9150611c3182611bca565b604082019050919050565b60006020820190508181036000830152611c5581611c19565b9050919050565b7f45524332303a20617070726f76652066726f6d20746865207a65726f2061646460008201527f7265737300000000000000000000000000000000000000000000000000000000602082015250565b6000611cb8602483611616565b9150611cc382611c5c565b604082019050919050565b60006020820190508181036000830152611ce781611cab565b9050919050565b7f45524332303a20617070726f766520746f20746865207a65726f20616464726560008201527f7373000000000000000000000000000000000000000000000000000000000000602082015250565b6000611d4a602283611616565b9150611d5582611cee565b604082019050919050565b60006020820190508181036000830152611d7981611d3d565b9050919050565b7f45524332303a20696e73756666696369656e7420616c6c6f77616e6365000000600082015250565b6000611db6601d83611616565b9150611dc182611d80565b602082019050919050565b60006020820190508181036000830152611de581611da9565b9050919050565b7f45524332303a207472616e736665722066726f6d20746865207a65726f20616460008201527f6472657373000000000000000000000000000000000000000000000000000000602082015250565b6000611e48602583611616565b9150611e5382611dec565b604082019050919050565b60006020820190508181036000830152611e7781611e3b565b9050919050565b7f45524332303a207472616e7366657220746f20746865207a65726f206164647260008201527f6573730000000000000000000000000000000000000000000000000000000000602082015250565b6000611eda602383611616565b9150611ee582611e7e565b604082019050919050565b60006020820190508181036000830152611f0981611ecd565b9050919050565b7f45524332303a207472616e7366657220616d6f756e742065786365656473206260008201527f616c616e63650000000000000000000000000000000000000000000000000000602082015250565b6000611f6c602683611616565b9150611f7782611f10565b604082019050919050565b60006020820190508181036000830152611f9b81611f5f565b9050919050565b7f45524332303a206d696e7420746f20746865207a65726f206164647265737300600082015250565b6000611fd8601f83611616565b9150611fe382611fa2565b602082019050919050565b6000602082019050818103600083015261200781611fcb565b9050919050565b7f4f776e61626c653a2063616c6c6572206973206e6f7420746865206f776e6572600082015250565b6000612044602083611616565b915061204f8261200e565b602082019050919050565b6000602082019050818103600083015261207381612037565b9050919050565b7f45524332303a206275726e2066726f6d20746865207a65726f2061646472657360008201527f7300000000000000000000000000000000000000000000000000000000000000602082015250565b60006120d6602183611616565b91506120e18261207a565b604082019050919050565b60006020820190508181036000830152612105816120c9565b9050919050565b7f45524332303a206275726e20616d6f756e7420657863656564732062616c616e60008201527f6365000000000000000000000000000000000000000000000000000000000000602082015250565b6000612168602283611616565b91506121738261210c565b604082019050919050565b600060208201905081810360008301526121978161215b565b9050919050565b60006121a982611720565b91506121b483611720565b92508282039050818111156121cc576121cb611977565b5b92915050565b7f496e697469616c697a61626c653a20636f6e7472616374206973206e6f74206960008201527f6e697469616c697a696e67000000000000000000000000000000000000000000602082015250565b600061222e602b83611616565b9150612239826121d2565b604082019050919050565b6000602082019050818103600083015261225d81612221565b9050919050565b7f4e487b7100000000000000000000000000000000000000000000000000000000600052604160045260246000fd5b60008190508160005260206000209050919050565b60006020601f8301049050919050565b600082821b905092915050565b6000600883026122f57fffffffffffffffffffffffffffffffffffffffffffffffffffffffffffffffff826122b8565b6122ff86836122b8565b95508019841693508086168417925050509392505050565b600061233261232d61232884611720565b611ae2565b611720565b9050919050565b6000819050919050565b61234c83612317565b61236061235882612339565b8484546122c5565b825550505050565b600090565b612375612368565b612380818484612343565b505050565b5b818110156123a45761239960008261236d565b600181019050612386565b5050565b601f8211156123e9576123ba81612293565b6123c3846122a8565b810160208510156123d2578190505b6123e66123de856122a8565b830182612385565b50505b505050565b600082821c905092915050565b600061240c600019846008026123ee565b1980831691505092915050565b600061242583836123fb565b9150826002028217905092915050565b61243e8261160b565b67ffffffffffffffff81111561245757612456612264565b5b6124618254611946565b61246c8282856123a8565b600060209050601f83116001811461249f576000841561248d578287015190505b6124978582612419565b8655506124ff565b601f1984166124ad86612293565b60005b828110156124d5578489015182556001820191506020850194506020810190506124b0565b868310156124f257848901516124ee601f8916826123fb565b8355505b6001600288020188555050505b50505050505056fea2646970667358221220593eab49467df087e7c2840a69d146d61dddf61f502da8f10ee8a9de4d252a6a64736f6c63430008110033",
  "linkReferences": {},
  "deployedLinkReferences": {}
}