{
  "_format": "hh-sol-artifact-1",
  "contractName": "Ethereus",
  "sourceName": "contracts/other/Ethereus.sol",
  "abi": [
    {
      "anonymous": false,
      "inputs": [
        {
          "indexed": true,
          "internalType": "address",
          "name": "owner",
          "type": "address"
        },
        {
          "indexed": true,
          "internalType": "address",
          "name": "spender",
          "type": "address"
        },
        {
          "indexed": false,
          "internalType": "uint256",
          "name": "value",
          "type": "uint256"
        }
      ],
      "name": "Approval",
      "type": "event"
    },
    {
      "anonymous": false,
      "inputs": [
        {
          "indexed": false,
          "internalType": "uint8",
          "name": "version",
          "type": "uint8"
        }
      ],
      "name": "Initialized",
      "type": "event"
    },
    {
      "anonymous": false,
      "inputs": [
        {
          "indexed": true,
          "internalType": "address",
          "name": "previousOwner",
          "type": "address"
        },
        {
          "indexed": true,
          "internalType": "address",
          "name": "newOwner",
          "type": "address"
        }
      ],
      "name": "OwnershipTransferred",
      "type": "event"
    },
    {
      "anonymous": false,
      "inputs": [
        {
          "indexed": true,
          "internalType": "address",
          "name": "from",
          "type": "address"
        },
        {
          "indexed": true,
          "internalType": "address",
          "name": "to",
          "type": "address"
        },
        {
          "indexed": false,
          "internalType": "uint256",
          "name": "value",
          "type": "uint256"
        }
      ],
      "name": "Transfer",
      "type": "event"
    },
    {
      "inputs": [
        {
          "internalType": "address",
          "name": "owner",
          "type": "address"
        },
        {
          "internalType": "address",
          "name": "spender",
          "type": "address"
        }
      ],
      "name": "allowance",
      "outputs": [
        {
          "internalType": "uint256",
          "name": "",
          "type": "uint256"
        }
      ],
      "stateMutability": "view",
      "type": "function"
    },
    {
      "inputs": [
        {
          "internalType": "address",
          "name": "spender",
          "type": "address"
        },
        {
          "internalType": "uint256",
          "name": "amount",
          "type": "uint256"
        }
      ],
      "name": "approve",
      "outputs": [
        {
          "internalType": "bool",
          "name": "",
          "type": "bool"
        }
      ],
      "stateMutability": "nonpayable",
      "type": "function"
    },
    {
      "inputs": [
        {
          "internalType": "address",
          "name": "account",
          "type": "address"
        }
      ],
      "name": "balanceOf",
      "outputs": [
        {
          "internalType": "uint256",
          "name": "",
          "type": "uint256"
        }
      ],
      "stateMutability": "view",
      "type": "function"
    },
    {
      "inputs": [
        {
          "internalType": "address",
          "name": "_account",
          "type": "address"
        },
        {
          "internalType": "uint256",
          "name": "_amount",
          "type": "uint256"
        }
      ],
      "name": "burnFrom",
      "outputs": [],
      "stateMutability": "nonpayable",
      "type": "function"
    },
    {
      "inputs": [],
      "name": "decimals",
      "outputs": [
        {
          "internalType": "uint8",
          "name": "",
          "type": "uint8"
        }
      ],
      "stateMutability": "view",
      "type": "function"
    },
    {
      "inputs": [
        {
          "internalType": "address",
          "name": "spender",
          "type": "address"
        },
        {
          "internalType": "uint256",
          "name": "subtractedValue",
          "type": "uint256"
        }
      ],
      "name": "decreaseAllowance",
      "outputs": [
        {
          "internalType": "bool",
          "name": "",
          "type": "bool"
        }
      ],
      "stateMutability": "nonpayable",
      "type": "function"
    },
    {
      "inputs": [],
      "name": "gameDiamond",
      "outputs": [
        {
          "internalType": "address",
          "name": "",
          "type": "address"
        }
      ],
      "stateMutability": "view",
      "type": "function"
    },
    {
      "inputs": [
        {
          "internalType": "address",
          "name": "spender",
          "type": "address"
        },
        {
          "internalType": "uint256",
          "name": "addedValue",
          "type": "uint256"
        }
      ],
      "name": "increaseAllowance",
      "outputs": [
        {
          "internalType": "bool",
          "name": "",
          "type": "bool"
        }
      ],
      "stateMutability": "nonpayable",
      "type": "function"
    },
    {
      "inputs": [
        {
          "internalType": "address",
          "name": "_gameDiamond",
          "type": "address"
        }
      ],
      "name": "initialize",
      "outputs": [],
      "stateMutability": "nonpayable",
      "type": "function"
    },
    {
      "inputs": [
        {
          "internalType": "address",
          "name": "_account",
          "type": "address"
        },
        {
          "internalType": "uint256",
          "name": "_amount",
          "type": "uint256"
        }
      ],
      "name": "mint",
      "outputs": [],
      "stateMutability": "nonpayable",
      "type": "function"
    },
    {
      "inputs": [],
      "name": "name",
      "outputs": [
        {
          "internalType": "string",
          "name": "",
          "type": "string"
        }
      ],
      "stateMutability": "view",
      "type": "function"
    },
    {
      "inputs": [],
      "name": "owner",
      "outputs": [
        {
          "internalType": "address",
          "name": "",
          "type": "address"
        }
      ],
      "stateMutability": "view",
      "type": "function"
    },
    {
      "inputs": [],
      "name": "renounceOwnership",
      "outputs": [],
      "stateMutability": "nonpayable",
      "type": "function"
    },
    {
      "inputs": [
        {
          "internalType": "address",
          "name": "_gameDiamond",
          "type": "address"
        }
      ],
      "name": "setAddresses",
      "outputs": [],
      "stateMutability": "nonpayable",
      "type": "function"
    },
    {
      "inputs": [],
      "name": "symbol",
      "outputs": [
        {
          "internalType": "string",
          "name": "",
          "type": "string"
        }
      ],
      "stateMutability": "view",
      "type": "function"
    },
    {
      "inputs": [],
      "name": "totalSupply",
      "outputs": [
        {
          "internalType": "uint256",
          "name": "",
          "type": "uint256"
        }
      ],
      "stateMutability": "view",
      "type": "function"
    },
    {
      "inputs": [
        {
          "internalType": "address",
          "name": "to",
          "type": "address"
        },
        {
          "internalType": "uint256",
          "name": "amount",
          "type": "uint256"
        }
      ],
      "name": "transfer",
      "outputs": [
        {
          "internalType": "bool",
          "name": "",
          "type": "bool"
        }
      ],
      "stateMutability": "nonpayable",
      "type": "function"
    },
    {
      "inputs": [
        {
          "internalType": "address",
          "name": "from",
          "type": "address"
        },
        {
          "internalType": "address",
          "name": "to",
          "type": "address"
        },
        {
          "internalType": "uint256",
          "name": "amount",
          "type": "uint256"
        }
      ],
      "name": "transferFrom",
      "outputs": [
        {
          "internalType": "bool",
          "name": "",
          "type": "bool"
        }
      ],
      "stateMutability": "nonpayable",
      "type": "function"
    },
    {
      "inputs": [
        {
          "internalType": "address",
          "name": "newOwner",
          "type": "address"
        }
      ],
      "name": "transferOwnership",
      "outputs": [],
      "stateMutability": "nonpayable",
      "type": "function"
    }
  ],
  "bytecode": "0x608060405234801561001057600080fd5b50612591806100206000396000f3fe608060405234801561001057600080fd5b50600436106101215760003560e01c806379cc6790116100ad578063a9059cbb11610071578063a9059cbb1461030a578063c4d66de81461033a578063dd62ed3e14610356578063f2fde38b14610386578063f7c0d44f146103a257610121565b806379cc67901461026657806381d3c435146102825780638da5cb5b1461029e57806395d89b41146102bc578063a457c2d7146102da57610121565b8063313ce567116100f4578063313ce567146101c257806339509351146101e057806340c10f191461021057806370a082311461022c578063715018a61461025c57610121565b806306fdde0314610126578063095ea7b31461014457806318160ddd1461017457806323b872dd14610192575b600080fd5b61012e6103c0565b60405161013b91906116ef565b60405180910390f35b61015e600480360381019061015991906117aa565b610452565b60405161016b9190611805565b60405180910390f35b61017c610475565b604051610189919061182f565b60405180910390f35b6101ac60048036038101906101a7919061184a565b61047f565b6040516101b99190611805565b60405180910390f35b6101ca6104ae565b6040516101d791906118b9565b60405180910390f35b6101fa60048036038101906101f591906117aa565b6104b7565b6040516102079190611805565b60405180910390f35b61022a600480360381019061022591906117aa565b6104ee565b005b610246600480360381019061024191906118d4565b61058c565b604051610253919061182f565b60405180910390f35b6102646105d5565b005b610280600480360381019061027b91906117aa565b6105e9565b005b61029c600480360381019061029791906118d4565b610687565b005b6102a66106d3565b6040516102b39190611910565b60405180910390f35b6102c46106fd565b6040516102d191906116ef565b60405180910390f35b6102f460048036038101906102ef91906117aa565b61078f565b6040516103019190611805565b60405180910390f35b610324600480360381019061031f91906117aa565b610806565b6040516103319190611805565b60405180910390f35b610354600480360381019061034f91906118d4565b610829565b005b610370600480360381019061036b919061192b565b610a1d565b60405161037d919061182f565b60405180910390f35b6103a0600480360381019061039b91906118d4565b610aa4565b005b6103aa610b27565b6040516103b79190611910565b60405180910390f35b6060603680546103cf9061199a565b80601f01602080910402602001604051908101604052809291908181526020018280546103fb9061199a565b80156104485780601f1061041d57610100808354040283529160200191610448565b820191906000526020600020905b81548152906001019060200180831161042b57829003601f168201915b5050505050905090565b60008061045d610b4d565b905061046a818585610b55565b600191505092915050565b6000603554905090565b60008061048a610b4d565b9050610497858285610d1e565b6104a2858585610daa565b60019150509392505050565b60006012905090565b6000806104c2610b4d565b90506104e38185856104d48589610a1d565b6104de91906119fa565b610b55565b600191505092915050565b609760009054906101000a900473ffffffffffffffffffffffffffffffffffffffff1673ffffffffffffffffffffffffffffffffffffffff163373ffffffffffffffffffffffffffffffffffffffff161461057e576040517f08c379a000000000000000000000000000000000000000000000000000000000815260040161057590611a7a565b60405180910390fd5b610588828261102c565b5050565b6000603360008373ffffffffffffffffffffffffffffffffffffffff1673ffffffffffffffffffffffffffffffffffffffff168152602001908152602001600020549050919050565b6105dd61118c565b6105e7600061120a565b565b609760009054906101000a900473ffffffffffffffffffffffffffffffffffffffff1673ffffffffffffffffffffffffffffffffffffffff163373ffffffffffffffffffffffffffffffffffffffff1614610679576040517f08c379a000000000000000000000000000000000000000000000000000000000815260040161067090611a7a565b60405180910390fd5b61068382826112d0565b5050565b61068f61118c565b80609760006101000a81548173ffffffffffffffffffffffffffffffffffffffff021916908373ffffffffffffffffffffffffffffffffffffffff16021790555050565b6000606560009054906101000a900473ffffffffffffffffffffffffffffffffffffffff16905090565b60606037805461070c9061199a565b80601f01602080910402602001604051908101604052809291908181526020018280546107389061199a565b80156107855780601f1061075a57610100808354040283529160200191610785565b820191906000526020600020905b81548152906001019060200180831161076857829003601f168201915b5050505050905090565b60008061079a610b4d565b905060006107a88286610a1d565b9050838110156107ed576040517f08c379a00000000000000000000000000000000000000000000000000000000081526004016107e490611b0c565b60405180910390fd5b6107fa8286868403610b55565b60019250505092915050565b600080610811610b4d565b905061081e818585610daa565b600191505092915050565b60008060019054906101000a900460ff1615905080801561085a5750600160008054906101000a900460ff1660ff16105b806108875750610869306114a8565b1580156108865750600160008054906101000a900460ff1660ff16145b5b6108c6576040517f08c379a00000000000000000000000000000000000000000000000000000000081526004016108bd90611b9e565b60405180910390fd5b60016000806101000a81548160ff021916908360ff1602179055508015610903576001600060016101000a81548160ff0219169083151502179055505b6109776040518060400160405280600881526020017f45746865726575730000000000000000000000000000000000000000000000008152506040518060400160405280600381526020017f45525300000000000000000000000000000000000000000000000000000000008152506114cb565b61097f611528565b81609760006101000a81548173ffffffffffffffffffffffffffffffffffffffff021916908373ffffffffffffffffffffffffffffffffffffffff1602179055508015610a195760008060016101000a81548160ff0219169083151502179055507f7f26b83ff96e1f2b6a682f133852f6798a09c465da95921460cefb38474024986001604051610a109190611c03565b60405180910390a15b5050565b6000603460008473ffffffffffffffffffffffffffffffffffffffff1673ffffffffffffffffffffffffffffffffffffffff16815260200190815260200160002060008373ffffffffffffffffffffffffffffffffffffffff1673ffffffffffffffffffffffffffffffffffffffff16815260200190815260200160002054905092915050565b610aac61118c565b600073ffffffffffffffffffffffffffffffffffffffff168173ffffffffffffffffffffffffffffffffffffffff1603610b1b576040517f08c379a0000000000000000000000000000000000000000000000000000000008152600401610b1290611c90565b60405180910390fd5b610b248161120a565b50565b609760009054906101000a900473ffffffffffffffffffffffffffffffffffffffff1681565b600033905090565b600073ffffffffffffffffffffffffffffffffffffffff168373ffffffffffffffffffffffffffffffffffffffff1603610bc4576040517f08c379a0000000000000000000000000000000000000000000000000000000008152600401610bbb90611d22565b60405180910390fd5b600073ffffffffffffffffffffffffffffffffffffffff168273ffffffffffffffffffffffffffffffffffffffff1603610c33576040517f08c379a0000000000000000000000000000000000000000000000000000000008152600401610c2a90611db4565b60405180910390fd5b80603460008573ffffffffffffffffffffffffffffffffffffffff1673ffffffffffffffffffffffffffffffffffffffff16815260200190815260200160002060008473ffffffffffffffffffffffffffffffffffffffff1673ffffffffffffffffffffffffffffffffffffffff168152602001908152602001600020819055508173ffffffffffffffffffffffffffffffffffffffff168373ffffffffffffffffffffffffffffffffffffffff167f8c5be1e5ebec7d5bd14f71427d1e84f3dd0314c0f7b2291e5b200ac8c7c3b92583604051610d11919061182f565b60405180910390a3505050565b6000610d2a8484610a1d565b90507fffffffffffffffffffffffffffffffffffffffffffffffffffffffffffffffff8114610da45781811015610d96576040517f08c379a0000000000000000000000000000000000000000000000000000000008152600401610d8d90611e20565b60405180910390fd5b610da38484848403610b55565b5b50505050565b600073ffffffffffffffffffffffffffffffffffffffff168373ffffffffffffffffffffffffffffffffffffffff1603610e19576040517f08c379a0000000000000000000000000000000000000000000000000000000008152600401610e1090611eb2565b60405180910390fd5b600073ffffffffffffffffffffffffffffffffffffffff168273ffffffffffffffffffffffffffffffffffffffff1603610e88576040517f08c379a0000000000000000000000000000000000000000000000000000000008152600401610e7f90611f44565b60405180910390fd5b610e93838383611581565b6000603360008573ffffffffffffffffffffffffffffffffffffffff1673ffffffffffffffffffffffffffffffffffffffff16815260200190815260200160002054905081811015610f1a576040517f08c379a0000000000000000000000000000000000000000000000000000000008152600401610f1190611fd6565b60405180910390fd5b818103603360008673ffffffffffffffffffffffffffffffffffffffff1673ffffffffffffffffffffffffffffffffffffffff1681526020019081526020016000208190555081603360008573ffffffffffffffffffffffffffffffffffffffff1673ffffffffffffffffffffffffffffffffffffffff1681526020019081526020016000206000828254610faf91906119fa565b925050819055508273ffffffffffffffffffffffffffffffffffffffff168473ffffffffffffffffffffffffffffffffffffffff167fddf252ad1be2c89b69c2b068fc378daa952ba7f163c4a11628f55a4df523b3ef84604051611013919061182f565b60405180910390a3611026848484611586565b50505050565b600073ffffffffffffffffffffffffffffffffffffffff168273ffffffffffffffffffffffffffffffffffffffff160361109b576040517f08c379a000000000000000000000000000000000000000000000000000000000815260040161109290612042565b60405180910390fd5b6110a760008383611581565b80603560008282546110b991906119fa565b9250508190555080603360008473ffffffffffffffffffffffffffffffffffffffff1673ffffffffffffffffffffffffffffffffffffffff168152602001908152602001600020600082825461110f91906119fa565b925050819055508173ffffffffffffffffffffffffffffffffffffffff16600073ffffffffffffffffffffffffffffffffffffffff167fddf252ad1be2c89b69c2b068fc378daa952ba7f163c4a11628f55a4df523b3ef83604051611174919061182f565b60405180910390a361118860008383611586565b5050565b611194610b4d565b73ffffffffffffffffffffffffffffffffffffffff166111b26106d3565b73ffffffffffffffffffffffffffffffffffffffff1614611208576040517f08c379a00000000000000000000000000000000000000000000000000000000081526004016111ff906120ae565b60405180910390fd5b565b6000606560009054906101000a900473ffffffffffffffffffffffffffffffffffffffff16905081606560006101000a81548173ffffffffffffffffffffffffffffffffffffffff021916908373ffffffffffffffffffffffffffffffffffffffff1602179055508173ffffffffffffffffffffffffffffffffffffffff168173ffffffffffffffffffffffffffffffffffffffff167f8be0079c531659141344cd1fd0a4f28419497f9722a3daafe3b4186f6b6457e060405160405180910390a35050565b600073ffffffffffffffffffffffffffffffffffffffff168273ffffffffffffffffffffffffffffffffffffffff160361133f576040517f08c379a000000000000000000000000000000000000000000000000000000000815260040161133690612140565b60405180910390fd5b61134b82600083611581565b6000603360008473ffffffffffffffffffffffffffffffffffffffff1673ffffffffffffffffffffffffffffffffffffffff168152602001908152602001600020549050818110156113d2576040517f08c379a00000000000000000000000000000000000000000000000000000000081526004016113c9906121d2565b60405180910390fd5b818103603360008573ffffffffffffffffffffffffffffffffffffffff1673ffffffffffffffffffffffffffffffffffffffff16815260200190815260200160002081905550816035600082825461142a91906121f2565b92505081905550600073ffffffffffffffffffffffffffffffffffffffff168373ffffffffffffffffffffffffffffffffffffffff167fddf252ad1be2c89b69c2b068fc378daa952ba7f163c4a11628f55a4df523b3ef8460405161148f919061182f565b60405180910390a36114a383600084611586565b505050565b6000808273ffffffffffffffffffffffffffffffffffffffff163b119050919050565b600060019054906101000a900460ff1661151a576040517f08c379a000000000000000000000000000000000000000000000000000000000815260040161151190612298565b60405180910390fd5b611524828261158b565b5050565b600060019054906101000a900460ff16611577576040517f08c379a000000000000000000000000000000000000000000000000000000000815260040161156e90612298565b60405180910390fd5b61157f6115fe565b565b505050565b505050565b600060019054906101000a900460ff166115da576040517f08c379a00000000000000000000000000000000000000000000000000000000081526004016115d190612298565b60405180910390fd5b81603690816115e99190612489565b5080603790816115f99190612489565b505050565b600060019054906101000a900460ff1661164d576040517f08c379a000000000000000000000000000000000000000000000000000000000815260040161164490612298565b60405180910390fd5b61165d611658610b4d565b61120a565b565b600081519050919050565b600082825260208201905092915050565b60005b8381101561169957808201518184015260208101905061167e565b60008484015250505050565b6000601f19601f8301169050919050565b60006116c18261165f565b6116cb818561166a565b93506116db81856020860161167b565b6116e4816116a5565b840191505092915050565b6000602082019050818103600083015261170981846116b6565b905092915050565b600080fd5b600073ffffffffffffffffffffffffffffffffffffffff82169050919050565b600061174182611716565b9050919050565b61175181611736565b811461175c57600080fd5b50565b60008135905061176e81611748565b92915050565b6000819050919050565b61178781611774565b811461179257600080fd5b50565b6000813590506117a48161177e565b92915050565b600080604083850312156117c1576117c0611711565b5b60006117cf8582860161175f565b92505060206117e085828601611795565b9150509250929050565b60008115159050919050565b6117ff816117ea565b82525050565b600060208201905061181a60008301846117f6565b92915050565b61182981611774565b82525050565b60006020820190506118446000830184611820565b92915050565b60008060006060848603121561186357611862611711565b5b60006118718682870161175f565b93505060206118828682870161175f565b925050604061189386828701611795565b9150509250925092565b600060ff82169050919050565b6118b38161189d565b82525050565b60006020820190506118ce60008301846118aa565b92915050565b6000602082840312156118ea576118e9611711565b5b60006118f88482850161175f565b91505092915050565b61190a81611736565b82525050565b60006020820190506119256000830184611901565b92915050565b6000806040838503121561194257611941611711565b5b60006119508582860161175f565b92505060206119618582860161175f565b9150509250929050565b7f4e487b7100000000000000000000000000000000000000000000000000000000600052602260045260246000fd5b600060028204905060018216806119b257607f821691505b6020821081036119c5576119c461196b565b5b50919050565b7f4e487b7100000000000000000000000000000000000000000000000000000000600052601160045260246000fd5b6000611a0582611774565b9150611a1083611774565b9250828201905080821115611a2857611a276119cb565b5b92915050565b7f45746865726575733a2072657374726963746564000000000000000000000000600082015250565b6000611a6460148361166a565b9150611a6f82611a2e565b602082019050919050565b60006020820190508181036000830152611a9381611a57565b9050919050565b7f45524332303a2064656372656173656420616c6c6f77616e63652062656c6f7760008201527f207a65726f000000000000000000000000000000000000000000000000000000602082015250565b6000611af660258361166a565b9150611b0182611a9a565b604082019050919050565b60006020820190508181036000830152611b2581611ae9565b9050919050565b7f496e697469616c697a61626c653a20636f6e747261637420697320616c72656160008201527f647920696e697469616c697a6564000000000000000000000000000000000000602082015250565b6000611b88602e8361166a565b9150611b9382611b2c565b604082019050919050565b60006020820190508181036000830152611bb781611b7b565b9050919050565b6000819050919050565b6000819050919050565b6000611bed611be8611be384611bbe565b611bc8565b61189d565b9050919050565b611bfd81611bd2565b82525050565b6000602082019050611c186000830184611bf4565b92915050565b7f4f776e61626c653a206e6577206f776e657220697320746865207a65726f206160008201527f6464726573730000000000000000000000000000000000000000000000000000602082015250565b6000611c7a60268361166a565b9150611c8582611c1e565b604082019050919050565b60006020820190508181036000830152611ca981611c6d565b9050919050565b7f45524332303a20617070726f76652066726f6d20746865207a65726f2061646460008201527f7265737300000000000000000000000000000000000000000000000000000000602082015250565b6000611d0c60248361166a565b9150611d1782611cb0565b604082019050919050565b60006020820190508181036000830152611d3b81611cff565b9050919050565b7f45524332303a20617070726f766520746f20746865207a65726f20616464726560008201527f7373000000000000000000000000000000000000000000000000000000000000602082015250565b6000611d9e60228361166a565b9150611da982611d42565b604082019050919050565b60006020820190508181036000830152611dcd81611d91565b9050919050565b7f45524332303a20696e73756666696369656e7420616c6c6f77616e6365000000600082015250565b6000611e0a601d8361166a565b9150611e1582611dd4565b602082019050919050565b60006020820190508181036000830152611e3981611dfd565b9050919050565b7f45524332303a207472616e736665722066726f6d20746865207a65726f20616460008201527f6472657373000000000000000000000000000000000000000000000000000000602082015250565b6000611e9c60258361166a565b9150611ea782611e40565b604082019050919050565b60006020820190508181036000830152611ecb81611e8f565b9050919050565b7f45524332303a207472616e7366657220746f20746865207a65726f206164647260008201527f6573730000000000000000000000000000000000000000000000000000000000602082015250565b6000611f2e60238361166a565b9150611f3982611ed2565b604082019050919050565b60006020820190508181036000830152611f5d81611f21565b9050919050565b7f45524332303a207472616e7366657220616d6f756e742065786365656473206260008201527f616c616e63650000000000000000000000000000000000000000000000000000602082015250565b6000611fc060268361166a565b9150611fcb82611f64565b604082019050919050565b60006020820190508181036000830152611fef81611fb3565b9050919050565b7f45524332303a206d696e7420746f20746865207a65726f206164647265737300600082015250565b600061202c601f8361166a565b915061203782611ff6565b602082019050919050565b6000602082019050818103600083015261205b8161201f565b9050919050565b7f4f776e61626c653a2063616c6c6572206973206e6f7420746865206f776e6572600082015250565b600061209860208361166a565b91506120a382612062565b602082019050919050565b600060208201905081810360008301526120c78161208b565b9050919050565b7f45524332303a206275726e2066726f6d20746865207a65726f2061646472657360008201527f7300000000000000000000000000000000000000000000000000000000000000602082015250565b600061212a60218361166a565b9150612135826120ce565b604082019050919050565b600060208201905081810360008301526121598161211d565b9050919050565b7f45524332303a206275726e20616d6f756e7420657863656564732062616c616e60008201527f6365000000000000000000000000000000000000000000000000000000000000602082015250565b60006121bc60228361166a565b91506121c782612160565b604082019050919050565b600060208201905081810360008301526121eb816121af565b9050919050565b60006121fd82611774565b915061220883611774565b92508282039050818111156122205761221f6119cb565b5b92915050565b7f496e697469616c697a61626c653a20636f6e7472616374206973206e6f74206960008201527f6e697469616c697a696e67000000000000000000000000000000000000000000602082015250565b6000612282602b8361166a565b915061228d82612226565b604082019050919050565b600060208201905081810360008301526122b181612275565b9050919050565b7f4e487b7100000000000000000000000000000000000000000000000000000000600052604160045260246000fd5b60008190508160005260206000209050919050565b60006020601f8301049050919050565b600082821b905092915050565b6000600883026123497fffffffffffffffffffffffffffffffffffffffffffffffffffffffffffffffff8261230c565b612353868361230c565b95508019841693508086168417925050509392505050565b600061238661238161237c84611774565b611bc8565b611774565b9050919050565b6000819050919050565b6123a08361236b565b6123b46123ac8261238d565b848454612319565b825550505050565b600090565b6123c96123bc565b6123d4818484612397565b505050565b5b818110156123f8576123ed6000826123c1565b6001810190506123da565b5050565b601f82111561243d5761240e816122e7565b612417846122fc565b81016020851015612426578190505b61243a612432856122fc565b8301826123d9565b50505b505050565b600082821c905092915050565b600061246060001984600802612442565b1980831691505092915050565b6000612479838361244f565b9150826002028217905092915050565b6124928261165f565b67ffffffffffffffff8111156124ab576124aa6122b8565b5b6124b5825461199a565b6124c08282856123fc565b600060209050601f8311600181146124f357600084156124e1578287015190505b6124eb858261246d565b865550612553565b601f198416612501866122e7565b60005b8281101561252957848901518255600182019150602085019450602081019050612504565b868310156125465784890151612542601f89168261244f565b8355505b6001600288020188555050505b50505050505056fea2646970667358221220ebb1a9e21503ff214b3751a25e0ba4720f96e2285eef24b8479f942447dc503864736f6c63430008110033",
  "linkReferences": {},
  "deployedLinkReferences": {}
}