{
  "_format": "hh-sol-artifact-1",
  "contractName": "Fleets",
  "sourceName": "contracts/other/Fleets.sol",
  "abi": [
    {
      "anonymous": false,
      "inputs": [
        {
          "indexed": true,
          "internalType": "address",
          "name": "account",
          "type": "address"
        },
        {
          "indexed": true,
          "internalType": "address",
          "name": "operator",
          "type": "address"
        },
        {
          "indexed": false,
          "internalType": "bool",
          "name": "approved",
          "type": "bool"
        }
      ],
      "name": "ApprovalForAll",
      "type": "event"
    },
    {
      "anonymous": false,
      "inputs": [
        {
          "indexed": false,
          "internalType": "uint8",
          "name": "version",
          "type": "uint8"
        }
      ],
      "name": "Initialized",
      "type": "event"
    },
    {
      "anonymous": false,
      "inputs": [
        {
          "indexed": true,
          "internalType": "address",
          "name": "previousOwner",
          "type": "address"
        },
        {
          "indexed": true,
          "internalType": "address",
          "name": "newOwner",
          "type": "address"
        }
      ],
      "name": "OwnershipTransferred",
      "type": "event"
    },
    {
      "anonymous": false,
      "inputs": [
        {
          "indexed": true,
          "internalType": "address",
          "name": "operator",
          "type": "address"
        },
        {
          "indexed": true,
          "internalType": "address",
          "name": "from",
          "type": "address"
        },
        {
          "indexed": true,
          "internalType": "address",
          "name": "to",
          "type": "address"
        },
        {
          "indexed": false,
          "internalType": "uint256[]",
          "name": "ids",
          "type": "uint256[]"
        },
        {
          "indexed": false,
          "internalType": "uint256[]",
          "name": "values",
          "type": "uint256[]"
        }
      ],
      "name": "TransferBatch",
      "type": "event"
    },
    {
      "anonymous": false,
      "inputs": [
        {
          "indexed": true,
          "internalType": "address",
          "name": "operator",
          "type": "address"
        },
        {
          "indexed": true,
          "internalType": "address",
          "name": "from",
          "type": "address"
        },
        {
          "indexed": true,
          "internalType": "address",
          "name": "to",
          "type": "address"
        },
        {
          "indexed": false,
          "internalType": "uint256",
          "name": "id",
          "type": "uint256"
        },
        {
          "indexed": false,
          "internalType": "uint256",
          "name": "value",
          "type": "uint256"
        }
      ],
      "name": "TransferSingle",
      "type": "event"
    },
    {
      "anonymous": false,
      "inputs": [
        {
          "indexed": false,
          "internalType": "string",
          "name": "value",
          "type": "string"
        },
        {
          "indexed": true,
          "internalType": "uint256",
          "name": "id",
          "type": "uint256"
        }
      ],
      "name": "URI",
      "type": "event"
    },
    {
      "inputs": [
        {
          "internalType": "uint256",
          "name": "_id",
          "type": "uint256"
        },
        {
          "components": [
            {
              "internalType": "uint256[3]",
              "name": "price",
              "type": "uint256[3]"
            },
            {
              "internalType": "uint256",
              "name": "attack",
              "type": "uint256"
            },
            {
              "internalType": "uint256",
              "name": "health",
              "type": "uint256"
            },
            {
              "internalType": "uint256",
              "name": "cargo",
              "type": "uint256"
            },
            {
              "internalType": "uint256",
              "name": "craftTime",
              "type": "uint256"
            },
            {
              "internalType": "uint256",
              "name": "craftedFrom",
              "type": "uint256"
            },
            {
              "internalType": "string",
              "name": "name",
              "type": "string"
            }
          ],
          "internalType": "struct Fleets.Fleet",
          "name": "_fleet",
          "type": "tuple"
        }
      ],
      "name": "addFleet",
      "outputs": [],
      "stateMutability": "nonpayable",
      "type": "function"
    },
    {
      "inputs": [
        {
          "internalType": "address",
          "name": "account",
          "type": "address"
        },
        {
          "internalType": "uint256",
          "name": "id",
          "type": "uint256"
        }
      ],
      "name": "balanceOf",
      "outputs": [
        {
          "internalType": "uint256",
          "name": "",
          "type": "uint256"
        }
      ],
      "stateMutability": "view",
      "type": "function"
    },
    {
      "inputs": [
        {
          "internalType": "address[]",
          "name": "accounts",
          "type": "address[]"
        },
        {
          "internalType": "uint256[]",
          "name": "ids",
          "type": "uint256[]"
        }
      ],
      "name": "balanceOfBatch",
      "outputs": [
        {
          "internalType": "uint256[]",
          "name": "",
          "type": "uint256[]"
        }
      ],
      "stateMutability": "view",
      "type": "function"
    },
    {
      "inputs": [
        {
          "internalType": "uint256",
          "name": "",
          "type": "uint256"
        }
      ],
      "name": "fleets",
      "outputs": [
        {
          "internalType": "uint256",
          "name": "attack",
          "type": "uint256"
        },
        {
          "internalType": "uint256",
          "name": "health",
          "type": "uint256"
        },
        {
          "internalType": "uint256",
          "name": "cargo",
          "type": "uint256"
        },
        {
          "internalType": "uint256",
          "name": "craftTime",
          "type": "uint256"
        },
        {
          "internalType": "uint256",
          "name": "craftedFrom",
          "type": "uint256"
        },
        {
          "internalType": "string",
          "name": "name",
          "type": "string"
        }
      ],
      "stateMutability": "view",
      "type": "function"
    },
    {
      "inputs": [],
      "name": "gameDiamond",
      "outputs": [
        {
          "internalType": "address",
          "name": "",
          "type": "address"
        }
      ],
      "stateMutability": "view",
      "type": "function"
    },
    {
      "inputs": [
        {
          "internalType": "uint256",
          "name": "_fleetId",
          "type": "uint256"
        }
      ],
      "name": "getCargo",
      "outputs": [
        {
          "internalType": "uint256",
          "name": "",
          "type": "uint256"
        }
      ],
      "stateMutability": "view",
      "type": "function"
    },
    {
      "inputs": [
        {
          "internalType": "uint256",
          "name": "_fleetId",
          "type": "uint256"
        }
      ],
      "name": "getCraftTime",
      "outputs": [
        {
          "internalType": "uint256",
          "name": "",
          "type": "uint256"
        }
      ],
      "stateMutability": "view",
      "type": "function"
    },
    {
      "inputs": [
        {
          "internalType": "uint256",
          "name": "_fleetId",
          "type": "uint256"
        }
      ],
      "name": "getCraftedFrom",
      "outputs": [
        {
          "internalType": "uint256",
          "name": "",
          "type": "uint256"
        }
      ],
      "stateMutability": "view",
      "type": "function"
    },
    {
      "inputs": [
        {
          "internalType": "uint256",
          "name": "_fleetId",
          "type": "uint256"
        }
      ],
      "name": "getPrice",
      "outputs": [
        {
          "internalType": "uint256[3]",
          "name": "",
          "type": "uint256[3]"
        }
      ],
      "stateMutability": "view",
      "type": "function"
    },
    {
      "inputs": [
        {
          "internalType": "address",
          "name": "_gameDiamond",
          "type": "address"
        }
      ],
      "name": "initialize",
      "outputs": [],
      "stateMutability": "nonpayable",
      "type": "function"
    },
    {
      "inputs": [
        {
          "internalType": "address",
          "name": "account",
          "type": "address"
        },
        {
          "internalType": "address",
          "name": "operator",
          "type": "address"
        }
      ],
      "name": "isApprovedForAll",
      "outputs": [
        {
          "internalType": "bool",
          "name": "",
          "type": "bool"
        }
      ],
      "stateMutability": "view",
      "type": "function"
    },
    {
      "inputs": [
        {
          "internalType": "address",
          "name": "_account",
          "type": "address"
        },
        {
          "internalType": "uint256",
          "name": "_fleetId",
          "type": "uint256"
        }
      ],
      "name": "mint",
      "outputs": [],
      "stateMutability": "nonpayable",
      "type": "function"
    },
    {
      "inputs": [],
      "name": "owner",
      "outputs": [
        {
          "internalType": "address",
          "name": "",
          "type": "address"
        }
      ],
      "stateMutability": "view",
      "type": "function"
    },
    {
      "inputs": [],
      "name": "renounceOwnership",
      "outputs": [],
      "stateMutability": "nonpayable",
      "type": "function"
    },
    {
      "inputs": [
        {
          "internalType": "address",
          "name": "from",
          "type": "address"
        },
        {
          "internalType": "address",
          "name": "to",
          "type": "address"
        },
        {
          "internalType": "uint256[]",
          "name": "ids",
          "type": "uint256[]"
        },
        {
          "internalType": "uint256[]",
          "name": "amounts",
          "type": "uint256[]"
        },
        {
          "internalType": "bytes",
          "name": "data",
          "type": "bytes"
        }
      ],
      "name": "safeBatchTransferFrom",
      "outputs": [],
      "stateMutability": "nonpayable",
      "type": "function"
    },
    {
      "inputs": [
        {
          "internalType": "address",
          "name": "from",
          "type": "address"
        },
        {
          "internalType": "address",
          "name": "to",
          "type": "address"
        },
        {
          "internalType": "uint256",
          "name": "id",
          "type": "uint256"
        },
        {
          "internalType": "uint256",
          "name": "amount",
          "type": "uint256"
        },
        {
          "internalType": "bytes",
          "name": "data",
          "type": "bytes"
        }
      ],
      "name": "safeTransferFrom",
      "outputs": [],
      "stateMutability": "nonpayable",
      "type": "function"
    },
    {
      "inputs": [
        {
          "internalType": "address",
          "name": "_gameDiamond",
          "type": "address"
        }
      ],
      "name": "setAddresses",
      "outputs": [],
      "stateMutability": "nonpayable",
      "type": "function"
    },
    {
      "inputs": [
        {
          "internalType": "address",
          "name": "operator",
          "type": "address"
        },
        {
          "internalType": "bool",
          "name": "approved",
          "type": "bool"
        }
      ],
      "name": "setApprovalForAll",
      "outputs": [],
      "stateMutability": "nonpayable",
      "type": "function"
    },
    {
      "inputs": [
        {
          "internalType": "string",
          "name": "__uri",
          "type": "string"
        }
      ],
      "name": "setUri",
      "outputs": [],
      "stateMutability": "nonpayable",
      "type": "function"
    },
    {
      "inputs": [
        {
          "internalType": "bytes4",
          "name": "interfaceId",
          "type": "bytes4"
        }
      ],
      "name": "supportsInterface",
      "outputs": [
        {
          "internalType": "bool",
          "name": "",
          "type": "bool"
        }
      ],
      "stateMutability": "view",
      "type": "function"
    },
    {
      "inputs": [
        {
          "internalType": "address",
          "name": "newOwner",
          "type": "address"
        }
      ],
      "name": "transferOwnership",
      "outputs": [],
      "stateMutability": "nonpayable",
      "type": "function"
    },
    {
      "inputs": [
        {
          "internalType": "uint256",
          "name": "",
          "type": "uint256"
        }
      ],
      "name": "uri",
      "outputs": [
        {
          "internalType": "string",
          "name": "",
          "type": "string"
        }
      ],
      "stateMutability": "view",
      "type": "function"
    }
  ],
  "bytecode": "0x608060405234801561001057600080fd5b50613e36806100206000396000f3fe608060405234801561001057600080fd5b50600436106101415760003560e01c80638da5cb5b116100b8578063c4d66de81161007c578063c4d66de81461039b578063e7572230146103b7578063e985e9c5146103e7578063f242432a14610417578063f2fde38b14610433578063f7c0d44f1461044f57610141565b80638da5cb5b146102f45780639b642de114610312578063a22cb4651461032e578063a4d804e11461034a578063b8b4b1731461036657610141565b80632eb2c2d61161010a5780632eb2c2d61461023657806340c10f19146102525780634e1273f41461026e57806352c104eb1461029e578063715018a6146102ce57806381d3c435146102d857610141565b8062fdd58e1461014657806301ffc9a7146101765780630e89341c146101a657806316358bdf146101d6578063278e2f6814610206575b600080fd5b610160600480360381019061015b919061203b565b61046d565b60405161016d919061208a565b60405180910390f35b610190600480360381019061018b91906120fd565b610536565b60405161019d9190612145565b60405180910390f35b6101c060048036038101906101bb9190612160565b610618565b6040516101cd919061221d565b60405180910390f35b6101f060048036038101906101eb9190612160565b6106ac565b6040516101fd919061208a565b60405180910390f35b610220600480360381019061021b9190612160565b6106cc565b60405161022d919061208a565b60405180910390f35b610250600480360381019061024b919061243c565b6106ec565b005b61026c6004803603810190610267919061203b565b61078d565b005b610288600480360381019061028391906125ce565b61083d565b6040516102959190612704565b60405180910390f35b6102b860048036038101906102b39190612160565b610956565b6040516102c5919061208a565b60405180910390f35b6102d6610976565b005b6102f260048036038101906102ed9190612726565b61098a565b005b6102fc6109d6565b6040516103099190612762565b60405180910390f35b61032c600480360381019061032791906127d8565b610a00565b005b61034860048036038101906103439190612851565b610a1e565b005b610364600480360381019061035f91906128b6565b610a34565b005b610380600480360381019061037b9190612160565b610a63565b60405161039296959493929190612912565b60405180910390f35b6103b560048036038101906103b09190612726565b610b27565b005b6103d160048036038101906103cc9190612160565b610cbf565b6040516103de91906129fe565b60405180910390f35b61040160048036038101906103fc9190612a19565b610d20565b60405161040e9190612145565b60405180910390f35b610431600480360381019061042c9190612a59565b610db4565b005b61044d60048036038101906104489190612726565b610e55565b005b610457610ed8565b6040516104649190612762565b60405180910390f35b60008073ffffffffffffffffffffffffffffffffffffffff168373ffffffffffffffffffffffffffffffffffffffff16036104dd576040517f08c379a00000000000000000000000000000000000000000000000000000000081526004016104d490612b62565b60405180910390fd5b6065600083815260200190815260200160002060008473ffffffffffffffffffffffffffffffffffffffff1673ffffffffffffffffffffffffffffffffffffffff16815260200190815260200160002054905092915050565b60007fd9b67a26000000000000000000000000000000000000000000000000000000007bffffffffffffffffffffffffffffffffffffffffffffffffffffffff1916827bffffffffffffffffffffffffffffffffffffffffffffffffffffffff1916148061060157507f0e89341c000000000000000000000000000000000000000000000000000000007bffffffffffffffffffffffffffffffffffffffffffffffffffffffff1916827bffffffffffffffffffffffffffffffffffffffffffffffffffffffff1916145b80610611575061061082610efe565b5b9050919050565b606060cb805461062790612bb1565b80601f016020809104026020016040519081016040528092919081815260200182805461065390612bb1565b80156106a05780601f10610675576101008083540402835291602001916106a0565b820191906000526020600020905b81548152906001019060200180831161068357829003601f168201915b50505050509050919050565b600060ca6000838152602001908152602001600020600701549050919050565b600060ca6000838152602001908152602001600020600601549050919050565b6106f4610f68565b73ffffffffffffffffffffffffffffffffffffffff168573ffffffffffffffffffffffffffffffffffffffff16148061073a575061073985610734610f68565b610d20565b5b610779576040517f08c379a000000000000000000000000000000000000000000000000000000000815260040161077090612c54565b60405180910390fd5b6107868585858585610f70565b5050505050565b60c960009054906101000a900473ffffffffffffffffffffffffffffffffffffffff1673ffffffffffffffffffffffffffffffffffffffff163373ffffffffffffffffffffffffffffffffffffffff161461081d576040517f08c379a000000000000000000000000000000000000000000000000000000000815260040161081490612cc0565b60405180910390fd5b6108398282600160405180602001604052806000815250611294565b5050565b60608151835114610883576040517f08c379a000000000000000000000000000000000000000000000000000000000815260040161087a90612d52565b60405180910390fd5b6000835167ffffffffffffffff8111156108a05761089f612244565b5b6040519080825280602002602001820160405280156108ce5781602001602082028036833780820191505090505b50905060005b845181101561094b5761091b8582815181106108f3576108f2612d72565b5b602002602001015185838151811061090e5761090d612d72565b5b602002602001015161046d565b82828151811061092e5761092d612d72565b5b6020026020010181815250508061094490612dd0565b90506108d4565b508091505092915050565b600060ca6000838152602001908152602001600020600501549050919050565b61097e611445565b61098860006114c3565b565b610992611445565b8060c960006101000a81548173ffffffffffffffffffffffffffffffffffffffff021916908373ffffffffffffffffffffffffffffffffffffffff16021790555050565b6000609760009054906101000a900473ffffffffffffffffffffffffffffffffffffffff16905090565b610a08611445565b818160cb9182610a19929190612fcf565b505050565b610a30610a29610f68565b8383611589565b5050565b610a3c611445565b8060ca60008481526020019081526020016000208181610a5c91906133f1565b9050505050565b60ca602052806000526040600020600091509050806003015490806004015490806005015490806006015490806007015490806008018054610aa490612bb1565b80601f0160208091040260200160405190810160405280929190818152602001828054610ad090612bb1565b8015610b1d5780601f10610af257610100808354040283529160200191610b1d565b820191906000526020600020905b815481529060010190602001808311610b0057829003601f168201915b5050505050905086565b60008060019054906101000a900460ff16159050808015610b585750600160008054906101000a900460ff1660ff16105b80610b855750610b67306116f5565b158015610b845750600160008054906101000a900460ff1660ff16145b5b610bc4576040517f08c379a0000000000000000000000000000000000000000000000000000000008152600401610bbb90613471565b60405180910390fd5b60016000806101000a81548160ff021916908360ff1602179055508015610c01576001600060016101000a81548160ff0219169083151502179055505b610c1960405180602001604052806000815250611718565b610c21611773565b8160c960006101000a81548173ffffffffffffffffffffffffffffffffffffffff021916908373ffffffffffffffffffffffffffffffffffffffff1602179055508015610cbb5760008060016101000a81548160ff0219169083151502179055507f7f26b83ff96e1f2b6a682f133852f6798a09c465da95921460cefb38474024986001604051610cb291906134d9565b60405180910390a15b5050565b610cc7611f71565b60ca6000838152602001908152602001600020600001600380602002604051908101604052809291908260038015610d14576020028201915b815481526020019060010190808311610d00575b50505050509050919050565b6000606660008473ffffffffffffffffffffffffffffffffffffffff1673ffffffffffffffffffffffffffffffffffffffff16815260200190815260200160002060008373ffffffffffffffffffffffffffffffffffffffff1673ffffffffffffffffffffffffffffffffffffffff16815260200190815260200160002060009054906101000a900460ff16905092915050565b610dbc610f68565b73ffffffffffffffffffffffffffffffffffffffff168573ffffffffffffffffffffffffffffffffffffffff161480610e025750610e0185610dfc610f68565b610d20565b5b610e41576040517f08c379a0000000000000000000000000000000000000000000000000000000008152600401610e3890612c54565b60405180910390fd5b610e4e85858585856117cc565b5050505050565b610e5d611445565b600073ffffffffffffffffffffffffffffffffffffffff168173ffffffffffffffffffffffffffffffffffffffff1603610ecc576040517f08c379a0000000000000000000000000000000000000000000000000000000008152600401610ec390613566565b60405180910390fd5b610ed5816114c3565b50565b60c960009054906101000a900473ffffffffffffffffffffffffffffffffffffffff1681565b60007f01ffc9a7000000000000000000000000000000000000000000000000000000007bffffffffffffffffffffffffffffffffffffffffffffffffffffffff1916827bffffffffffffffffffffffffffffffffffffffffffffffffffffffff1916149050919050565b600033905090565b8151835114610fb4576040517f08c379a0000000000000000000000000000000000000000000000000000000008152600401610fab906135f8565b60405180910390fd5b600073ffffffffffffffffffffffffffffffffffffffff168473ffffffffffffffffffffffffffffffffffffffff1603611023576040517f08c379a000000000000000000000000000000000000000000000000000000000815260040161101a9061368a565b60405180910390fd5b600061102d610f68565b905061103d818787878787611a6a565b60005b84518110156111f157600085828151811061105e5761105d612d72565b5b60200260200101519050600085838151811061107d5761107c612d72565b5b6020026020010151905060006065600084815260200190815260200160002060008b73ffffffffffffffffffffffffffffffffffffffff1673ffffffffffffffffffffffffffffffffffffffff1681526020019081526020016000205490508181101561111f576040517f08c379a00000000000000000000000000000000000000000000000000000000081526004016111169061371c565b60405180910390fd5b8181036065600085815260200190815260200160002060008c73ffffffffffffffffffffffffffffffffffffffff1673ffffffffffffffffffffffffffffffffffffffff16815260200190815260200160002081905550816065600085815260200190815260200160002060008b73ffffffffffffffffffffffffffffffffffffffff1673ffffffffffffffffffffffffffffffffffffffff16815260200190815260200160002060008282546111d6919061373c565b92505081905550505050806111ea90612dd0565b9050611040565b508473ffffffffffffffffffffffffffffffffffffffff168673ffffffffffffffffffffffffffffffffffffffff168273ffffffffffffffffffffffffffffffffffffffff167f4a39dc06d4c0dbc64b70af90fd698a233a518aa5d07e595d983b8c0526c8f7fb8787604051611268929190613770565b60405180910390a461127e818787878787611a72565b61128c818787878787611a7a565b505050505050565b600073ffffffffffffffffffffffffffffffffffffffff168473ffffffffffffffffffffffffffffffffffffffff1603611303576040517f08c379a00000000000000000000000000000000000000000000000000000000081526004016112fa90613819565b60405180910390fd5b600061130d610f68565b9050600061131a85611c51565b9050600061132785611c51565b905061133883600089858589611a6a565b846065600088815260200190815260200160002060008973ffffffffffffffffffffffffffffffffffffffff1673ffffffffffffffffffffffffffffffffffffffff1681526020019081526020016000206000828254611398919061373c565b925050819055508673ffffffffffffffffffffffffffffffffffffffff16600073ffffffffffffffffffffffffffffffffffffffff168473ffffffffffffffffffffffffffffffffffffffff167fc3d58168c5ae7397731d063d5bbf3d657854427343f4c083240f7aacaa2d0f628989604051611416929190613839565b60405180910390a461142d83600089858589611a72565b61143c83600089898989611ccb565b50505050505050565b61144d610f68565b73ffffffffffffffffffffffffffffffffffffffff1661146b6109d6565b73ffffffffffffffffffffffffffffffffffffffff16146114c1576040517f08c379a00000000000000000000000000000000000000000000000000000000081526004016114b8906138ae565b60405180910390fd5b565b6000609760009054906101000a900473ffffffffffffffffffffffffffffffffffffffff16905081609760006101000a81548173ffffffffffffffffffffffffffffffffffffffff021916908373ffffffffffffffffffffffffffffffffffffffff1602179055508173ffffffffffffffffffffffffffffffffffffffff168173ffffffffffffffffffffffffffffffffffffffff167f8be0079c531659141344cd1fd0a4f28419497f9722a3daafe3b4186f6b6457e060405160405180910390a35050565b8173ffffffffffffffffffffffffffffffffffffffff168373ffffffffffffffffffffffffffffffffffffffff16036115f7576040517f08c379a00000000000000000000000000000000000000000000000000000000081526004016115ee90613940565b60405180910390fd5b80606660008573ffffffffffffffffffffffffffffffffffffffff1673ffffffffffffffffffffffffffffffffffffffff16815260200190815260200160002060008473ffffffffffffffffffffffffffffffffffffffff1673ffffffffffffffffffffffffffffffffffffffff16815260200190815260200160002060006101000a81548160ff0219169083151502179055508173ffffffffffffffffffffffffffffffffffffffff168373ffffffffffffffffffffffffffffffffffffffff167f17307eab39ab6107e8899845ad3d59bd9653f200f220920489ca2b5937696c31836040516116e89190612145565b60405180910390a3505050565b6000808273ffffffffffffffffffffffffffffffffffffffff163b119050919050565b600060019054906101000a900460ff16611767576040517f08c379a000000000000000000000000000000000000000000000000000000000815260040161175e906139d2565b60405180910390fd5b61177081611ea2565b50565b600060019054906101000a900460ff166117c2576040517f08c379a00000000000000000000000000000000000000000000000000000000081526004016117b9906139d2565b60405180910390fd5b6117ca611efd565b565b600073ffffffffffffffffffffffffffffffffffffffff168473ffffffffffffffffffffffffffffffffffffffff160361183b576040517f08c379a00000000000000000000000000000000000000000000000000000000081526004016118329061368a565b60405180910390fd5b6000611845610f68565b9050600061185285611c51565b9050600061185f85611c51565b905061186f838989858589611a6a565b60006065600088815260200190815260200160002060008a73ffffffffffffffffffffffffffffffffffffffff1673ffffffffffffffffffffffffffffffffffffffff16815260200190815260200160002054905085811015611907576040517f08c379a00000000000000000000000000000000000000000000000000000000081526004016118fe9061371c565b60405180910390fd5b8581036065600089815260200190815260200160002060008b73ffffffffffffffffffffffffffffffffffffffff1673ffffffffffffffffffffffffffffffffffffffff16815260200190815260200160002081905550856065600089815260200190815260200160002060008a73ffffffffffffffffffffffffffffffffffffffff1673ffffffffffffffffffffffffffffffffffffffff16815260200190815260200160002060008282546119be919061373c565b925050819055508773ffffffffffffffffffffffffffffffffffffffff168973ffffffffffffffffffffffffffffffffffffffff168573ffffffffffffffffffffffffffffffffffffffff167fc3d58168c5ae7397731d063d5bbf3d657854427343f4c083240f7aacaa2d0f628a8a604051611a3b929190613839565b60405180910390a4611a51848a8a86868a611a72565b611a5f848a8a8a8a8a611ccb565b505050505050505050565b505050505050565b505050505050565b611a998473ffffffffffffffffffffffffffffffffffffffff166116f5565b15611c49578373ffffffffffffffffffffffffffffffffffffffff1663bc197c8187878686866040518663ffffffff1660e01b8152600401611adf959493929190613a47565b6020604051808303816000875af1925050508015611b1b57506040513d601f19601f82011682018060405250810190611b189190613ac4565b60015b611bc057611b27613afe565b806308c379a003611b835750611b3b613b20565b80611b465750611b85565b806040517f08c379a0000000000000000000000000000000000000000000000000000000008152600401611b7a919061221d565b60405180910390fd5b505b6040517f08c379a0000000000000000000000000000000000000000000000000000000008152600401611bb790613c22565b60405180910390fd5b63bc197c8160e01b7bffffffffffffffffffffffffffffffffffffffffffffffffffffffff1916817bffffffffffffffffffffffffffffffffffffffffffffffffffffffff191614611c47576040517f08c379a0000000000000000000000000000000000000000000000000000000008152600401611c3e90613cb4565b60405180910390fd5b505b505050505050565b60606000600167ffffffffffffffff811115611c7057611c6f612244565b5b604051908082528060200260200182016040528015611c9e5781602001602082028036833780820191505090505b5090508281600081518110611cb657611cb5612d72565b5b60200260200101818152505080915050919050565b611cea8473ffffffffffffffffffffffffffffffffffffffff166116f5565b15611e9a578373ffffffffffffffffffffffffffffffffffffffff1663f23a6e6187878686866040518663ffffffff1660e01b8152600401611d30959493929190613cd4565b6020604051808303816000875af1925050508015611d6c57506040513d601f19601f82011682018060405250810190611d699190613ac4565b60015b611e1157611d78613afe565b806308c379a003611dd45750611d8c613b20565b80611d975750611dd6565b806040517f08c379a0000000000000000000000000000000000000000000000000000000008152600401611dcb919061221d565b60405180910390fd5b505b6040517f08c379a0000000000000000000000000000000000000000000000000000000008152600401611e0890613c22565b60405180910390fd5b63f23a6e6160e01b7bffffffffffffffffffffffffffffffffffffffffffffffffffffffff1916817bffffffffffffffffffffffffffffffffffffffffffffffffffffffff191614611e98576040517f08c379a0000000000000000000000000000000000000000000000000000000008152600401611e8f90613cb4565b60405180910390fd5b505b505050505050565b600060019054906101000a900460ff16611ef1576040517f08c379a0000000000000000000000000000000000000000000000000000000008152600401611ee8906139d2565b60405180910390fd5b611efa81611f5e565b50565b600060019054906101000a900460ff16611f4c576040517f08c379a0000000000000000000000000000000000000000000000000000000008152600401611f43906139d2565b60405180910390fd5b611f5c611f57610f68565b6114c3565b565b8060679081611f6d9190613d2e565b5050565b6040518060600160405280600390602082028036833780820191505090505090565b6000604051905090565b600080fd5b600080fd5b600073ffffffffffffffffffffffffffffffffffffffff82169050919050565b6000611fd282611fa7565b9050919050565b611fe281611fc7565b8114611fed57600080fd5b50565b600081359050611fff81611fd9565b92915050565b6000819050919050565b61201881612005565b811461202357600080fd5b50565b6000813590506120358161200f565b92915050565b6000806040838503121561205257612051611f9d565b5b600061206085828601611ff0565b925050602061207185828601612026565b9150509250929050565b61208481612005565b82525050565b600060208201905061209f600083018461207b565b92915050565b60007fffffffff0000000000000000000000000000000000000000000000000000000082169050919050565b6120da816120a5565b81146120e557600080fd5b50565b6000813590506120f7816120d1565b92915050565b60006020828403121561211357612112611f9d565b5b6000612121848285016120e8565b91505092915050565b60008115159050919050565b61213f8161212a565b82525050565b600060208201905061215a6000830184612136565b92915050565b60006020828403121561217657612175611f9d565b5b600061218484828501612026565b91505092915050565b600081519050919050565b600082825260208201905092915050565b60005b838110156121c75780820151818401526020810190506121ac565b60008484015250505050565b6000601f19601f8301169050919050565b60006121ef8261218d565b6121f98185612198565b93506122098185602086016121a9565b612212816121d3565b840191505092915050565b6000602082019050818103600083015261223781846121e4565b905092915050565b600080fd5b7f4e487b7100000000000000000000000000000000000000000000000000000000600052604160045260246000fd5b61227c826121d3565b810181811067ffffffffffffffff8211171561229b5761229a612244565b5b80604052505050565b60006122ae611f93565b90506122ba8282612273565b919050565b600067ffffffffffffffff8211156122da576122d9612244565b5b602082029050602081019050919050565b600080fd5b60006123036122fe846122bf565b6122a4565b90508083825260208201905060208402830185811115612326576123256122eb565b5b835b8181101561234f578061233b8882612026565b845260208401935050602081019050612328565b5050509392505050565b600082601f83011261236e5761236d61223f565b5b813561237e8482602086016122f0565b91505092915050565b600080fd5b600067ffffffffffffffff8211156123a7576123a6612244565b5b6123b0826121d3565b9050602081019050919050565b82818337600083830152505050565b60006123df6123da8461238c565b6122a4565b9050828152602081018484840111156123fb576123fa612387565b5b6124068482856123bd565b509392505050565b600082601f8301126124235761242261223f565b5b81356124338482602086016123cc565b91505092915050565b600080600080600060a0868803121561245857612457611f9d565b5b600061246688828901611ff0565b955050602061247788828901611ff0565b945050604086013567ffffffffffffffff81111561249857612497611fa2565b5b6124a488828901612359565b935050606086013567ffffffffffffffff8111156124c5576124c4611fa2565b5b6124d188828901612359565b925050608086013567ffffffffffffffff8111156124f2576124f1611fa2565b5b6124fe8882890161240e565b9150509295509295909350565b600067ffffffffffffffff82111561252657612525612244565b5b602082029050602081019050919050565b600061254a6125458461250b565b6122a4565b9050808382526020820190506020840283018581111561256d5761256c6122eb565b5b835b8181101561259657806125828882611ff0565b84526020840193505060208101905061256f565b5050509392505050565b600082601f8301126125b5576125b461223f565b5b81356125c5848260208601612537565b91505092915050565b600080604083850312156125e5576125e4611f9d565b5b600083013567ffffffffffffffff81111561260357612602611fa2565b5b61260f858286016125a0565b925050602083013567ffffffffffffffff8111156126305761262f611fa2565b5b61263c85828601612359565b9150509250929050565b600081519050919050565b600082825260208201905092915050565b6000819050602082019050919050565b61267b81612005565b82525050565b600061268d8383612672565b60208301905092915050565b6000602082019050919050565b60006126b182612646565b6126bb8185612651565b93506126c683612662565b8060005b838110156126f75781516126de8882612681565b97506126e983612699565b9250506001810190506126ca565b5085935050505092915050565b6000602082019050818103600083015261271e81846126a6565b905092915050565b60006020828403121561273c5761273b611f9d565b5b600061274a84828501611ff0565b91505092915050565b61275c81611fc7565b82525050565b60006020820190506127776000830184612753565b92915050565b600080fd5b60008083601f8401126127985761279761223f565b5b8235905067ffffffffffffffff8111156127b5576127b461277d565b5b6020830191508360018202830111156127d1576127d06122eb565b5b9250929050565b600080602083850312156127ef576127ee611f9d565b5b600083013567ffffffffffffffff81111561280d5761280c611fa2565b5b61281985828601612782565b92509250509250929050565b61282e8161212a565b811461283957600080fd5b50565b60008135905061284b81612825565b92915050565b6000806040838503121561286857612867611f9d565b5b600061287685828601611ff0565b92505060206128878582860161283c565b9150509250929050565b600080fd5b600061012082840312156128ad576128ac612891565b5b81905092915050565b600080604083850312156128cd576128cc611f9d565b5b60006128db85828601612026565b925050602083013567ffffffffffffffff8111156128fc576128fb611fa2565b5b61290885828601612896565b9150509250929050565b600060c082019050612927600083018961207b565b612934602083018861207b565b612941604083018761207b565b61294e606083018661207b565b61295b608083018561207b565b81810360a083015261296d81846121e4565b9050979650505050505050565b600060039050919050565b600081905092915050565b6000819050919050565b6000602082019050919050565b6129b08161297a565b6129ba8184612985565b92506129c582612990565b8060005b838110156129f65781516129dd8782612681565b96506129e88361299a565b9250506001810190506129c9565b505050505050565b6000606082019050612a1360008301846129a7565b92915050565b60008060408385031215612a3057612a2f611f9d565b5b6000612a3e85828601611ff0565b9250506020612a4f85828601611ff0565b9150509250929050565b600080600080600060a08688031215612a7557612a74611f9d565b5b6000612a8388828901611ff0565b9550506020612a9488828901611ff0565b9450506040612aa588828901612026565b9350506060612ab688828901612026565b925050608086013567ffffffffffffffff811115612ad757612ad6611fa2565b5b612ae38882890161240e565b9150509295509295909350565b7f455243313135353a2061646472657373207a65726f206973206e6f742061207660008201527f616c6964206f776e657200000000000000000000000000000000000000000000602082015250565b6000612b4c602a83612198565b9150612b5782612af0565b604082019050919050565b60006020820190508181036000830152612b7b81612b3f565b9050919050565b7f4e487b7100000000000000000000000000000000000000000000000000000000600052602260045260246000fd5b60006002820490506001821680612bc957607f821691505b602082108103612bdc57612bdb612b82565b5b50919050565b7f455243313135353a2063616c6c6572206973206e6f7420746f6b656e206f776e60008201527f6572206e6f7220617070726f7665640000000000000000000000000000000000602082015250565b6000612c3e602f83612198565b9150612c4982612be2565b604082019050919050565b60006020820190508181036000830152612c6d81612c31565b9050919050565b7f466c656574733a20726573747269637465640000000000000000000000000000600082015250565b6000612caa601283612198565b9150612cb582612c74565b602082019050919050565b60006020820190508181036000830152612cd981612c9d565b9050919050565b7f455243313135353a206163636f756e747320616e6420696473206c656e67746860008201527f206d69736d617463680000000000000000000000000000000000000000000000602082015250565b6000612d3c602983612198565b9150612d4782612ce0565b604082019050919050565b60006020820190508181036000830152612d6b81612d2f565b9050919050565b7f4e487b7100000000000000000000000000000000000000000000000000000000600052603260045260246000fd5b7f4e487b7100000000000000000000000000000000000000000000000000000000600052601160045260246000fd5b6000612ddb82612005565b91507fffffffffffffffffffffffffffffffffffffffffffffffffffffffffffffffff8203612e0d57612e0c612da1565b5b600182019050919050565b600082905092915050565b60008190508160005260206000209050919050565b60006020601f8301049050919050565b600082821b905092915050565b600060088302612e857fffffffffffffffffffffffffffffffffffffffffffffffffffffffffffffffff82612e48565b612e8f8683612e48565b95508019841693508086168417925050509392505050565b6000819050919050565b6000612ecc612ec7612ec284612005565b612ea7565b612005565b9050919050565b6000819050919050565b612ee683612eb1565b612efa612ef282612ed3565b848454612e55565b825550505050565b600090565b612f0f612f02565b612f1a818484612edd565b505050565b5b81811015612f3e57612f33600082612f07565b600181019050612f20565b5050565b601f821115612f8357612f5481612e23565b612f5d84612e38565b81016020851015612f6c578190505b612f80612f7885612e38565b830182612f1f565b50505b505050565b600082821c905092915050565b6000612fa660001984600802612f88565b1980831691505092915050565b6000612fbf8383612f95565b9150826002028217905092915050565b612fd98383612e18565b67ffffffffffffffff811115612ff257612ff1612244565b5b612ffc8254612bb1565b613007828285612f42565b6000601f8311600181146130365760008415613024578287013590505b61302e8582612fb3565b865550613096565b601f19841661304486612e23565b60005b8281101561306c57848901358255600182019150602085019450602081019050613047565b868310156130895784890135613085601f891682612f95565b8355505b6001600288020188555050505b50505050505050565b600060039050919050565b60008190506001806001038301049050919050565b6000819050919050565b5b818110156130e8576130dd600082612f07565b6001810190506130ca565b5050565b81831015613125576130fd826130aa565b613106846130aa565b61310f836130bf565b81810183820161311f81836130c9565b50505050505b505050565b6801000000000000000082111561314457613143612244565b5b61314d8161309f565b6131588382846130ec565b505050565b600060039050919050565b600081356131758161200f565b80915050919050565b6000819050919050565b6131918261315d565b67ffffffffffffffff8111156131aa576131a9612244565b5b6131b4818361312a565b6131bd8361317e565b6131c6836130bf565b6001830460005b818110156132055760006131e085613168565b6131e981612ed3565b80925060208701965050508082850155506001810190506131cd565b50505050505050565b6132188282613188565b5050565b60008160001b9050919050565b60007fffffffffffffffffffffffffffffffffffffffffffffffffffffffffffffffff6132558461321c565b9350801983169250808416831791505092915050565b61327482612eb1565b61328761328082612ed3565b8354613229565b8255505050565b600080fd5b600080fd5b600080fd5b600080833560016020038436030381126132ba576132b961328e565b5b80840192508235915067ffffffffffffffff8211156132dc576132db613293565b5b6020830192506001820236038313156132f8576132f7613298565b5b509250929050565b61330b838383612fcf565b505050565b600081016000830180613323818461320e565b50505060038101606083018061333881613168565b9050613344818461326b565b50505060048101608083018061335981613168565b9050613365818461326b565b5050506005810160a083018061337a81613168565b9050613386818461326b565b5050506006810160c083018061339b81613168565b90506133a7818461326b565b5050506007810160e08301806133bc81613168565b90506133c8818461326b565b5050506008810161010083016133de818561329d565b6133e9818386613300565b505050505050565b6133fb8282613310565b5050565b7f496e697469616c697a61626c653a20636f6e747261637420697320616c72656160008201527f647920696e697469616c697a6564000000000000000000000000000000000000602082015250565b600061345b602e83612198565b9150613466826133ff565b604082019050919050565b6000602082019050818103600083015261348a8161344e565b9050919050565b6000819050919050565b600060ff82169050919050565b60006134c36134be6134b984613491565b612ea7565b61349b565b9050919050565b6134d3816134a8565b82525050565b60006020820190506134ee60008301846134ca565b92915050565b7f4f776e61626c653a206e6577206f776e657220697320746865207a65726f206160008201527f6464726573730000000000000000000000000000000000000000000000000000602082015250565b6000613550602683612198565b915061355b826134f4565b604082019050919050565b6000602082019050818103600083015261357f81613543565b9050919050565b7f455243313135353a2069647320616e6420616d6f756e7473206c656e6774682060008201527f6d69736d61746368000000000000000000000000000000000000000000000000602082015250565b60006135e2602883612198565b91506135ed82613586565b604082019050919050565b60006020820190508181036000830152613611816135d5565b9050919050565b7f455243313135353a207472616e7366657220746f20746865207a65726f20616460008201527f6472657373000000000000000000000000000000000000000000000000000000602082015250565b6000613674602583612198565b915061367f82613618565b604082019050919050565b600060208201905081810360008301526136a381613667565b9050919050565b7f455243313135353a20696e73756666696369656e742062616c616e636520666f60008201527f72207472616e7366657200000000000000000000000000000000000000000000602082015250565b6000613706602a83612198565b9150613711826136aa565b604082019050919050565b60006020820190508181036000830152613735816136f9565b9050919050565b600061374782612005565b915061375283612005565b925082820190508082111561376a57613769612da1565b5b92915050565b6000604082019050818103600083015261378a81856126a6565b9050818103602083015261379e81846126a6565b90509392505050565b7f455243313135353a206d696e7420746f20746865207a65726f2061646472657360008201527f7300000000000000000000000000000000000000000000000000000000000000602082015250565b6000613803602183612198565b915061380e826137a7565b604082019050919050565b60006020820190508181036000830152613832816137f6565b9050919050565b600060408201905061384e600083018561207b565b61385b602083018461207b565b9392505050565b7f4f776e61626c653a2063616c6c6572206973206e6f7420746865206f776e6572600082015250565b6000613898602083612198565b91506138a382613862565b602082019050919050565b600060208201905081810360008301526138c78161388b565b9050919050565b7f455243313135353a2073657474696e6720617070726f76616c2073746174757360008201527f20666f722073656c660000000000000000000000000000000000000000000000602082015250565b600061392a602983612198565b9150613935826138ce565b604082019050919050565b600060208201905081810360008301526139598161391d565b9050919050565b7f496e697469616c697a61626c653a20636f6e7472616374206973206e6f74206960008201527f6e697469616c697a696e67000000000000000000000000000000000000000000602082015250565b60006139bc602b83612198565b91506139c782613960565b604082019050919050565b600060208201905081810360008301526139eb816139af565b9050919050565b600081519050919050565b600082825260208201905092915050565b6000613a19826139f2565b613a2381856139fd565b9350613a338185602086016121a9565b613a3c816121d3565b840191505092915050565b600060a082019050613a5c6000830188612753565b613a696020830187612753565b8181036040830152613a7b81866126a6565b90508181036060830152613a8f81856126a6565b90508181036080830152613aa38184613a0e565b90509695505050505050565b600081519050613abe816120d1565b92915050565b600060208284031215613ada57613ad9611f9d565b5b6000613ae884828501613aaf565b91505092915050565b60008160e01c9050919050565b600060033d1115613b1d5760046000803e613b1a600051613af1565b90505b90565b600060443d10613bad57613b32611f93565b60043d036004823e80513d602482011167ffffffffffffffff82111715613b5a575050613bad565b808201805167ffffffffffffffff811115613b785750505050613bad565b80602083010160043d038501811115613b95575050505050613bad565b613ba482602001850186612273565b82955050505050505b90565b7f455243313135353a207472616e7366657220746f206e6f6e204552433131353560008201527f526563656976657220696d706c656d656e746572000000000000000000000000602082015250565b6000613c0c603483612198565b9150613c1782613bb0565b604082019050919050565b60006020820190508181036000830152613c3b81613bff565b9050919050565b7f455243313135353a204552433131353552656365697665722072656a6563746560008201527f6420746f6b656e73000000000000000000000000000000000000000000000000602082015250565b6000613c9e602883612198565b9150613ca982613c42565b604082019050919050565b60006020820190508181036000830152613ccd81613c91565b9050919050565b600060a082019050613ce96000830188612753565b613cf66020830187612753565b613d03604083018661207b565b613d10606083018561207b565b8181036080830152613d228184613a0e565b90509695505050505050565b613d378261218d565b67ffffffffffffffff811115613d5057613d4f612244565b5b613d5a8254612bb1565b613d65828285612f42565b600060209050601f831160018114613d985760008415613d86578287015190505b613d908582612fb3565b865550613df8565b601f198416613da686612e23565b60005b82811015613dce57848901518255600182019150602085019450602081019050613da9565b86831015613deb5784890151613de7601f891682612f95565b8355505b6001600288020188555050505b50505050505056fea264697066735822122054e0525672e83dfe37b70de009e9628de1de8959ff6c8e240c0adda82481b1fc64736f6c63430008110033",
  "linkReferences": {},
  "deployedLinkReferences": {}
}