{
  "_format": "hh-sol-artifact-1",
  "contractName": "Planets",
  "sourceName": "contracts/other/Planets.sol",
  "abi": [
    {
      "anonymous": false,
      "inputs": [
        {
          "indexed": true,
          "internalType": "address",
          "name": "owner",
          "type": "address"
        },
        {
          "indexed": true,
          "internalType": "address",
          "name": "approved",
          "type": "address"
        },
        {
          "indexed": true,
          "internalType": "uint256",
          "name": "tokenId",
          "type": "uint256"
        }
      ],
      "name": "Approval",
      "type": "event"
    },
    {
      "anonymous": false,
      "inputs": [
        {
          "indexed": true,
          "internalType": "address",
          "name": "owner",
          "type": "address"
        },
        {
          "indexed": true,
          "internalType": "address",
          "name": "operator",
          "type": "address"
        },
        {
          "indexed": false,
          "internalType": "bool",
          "name": "approved",
          "type": "bool"
        }
      ],
      "name": "ApprovalForAll",
      "type": "event"
    },
    {
      "anonymous": false,
      "inputs": [
        {
          "indexed": false,
          "internalType": "uint8",
          "name": "version",
          "type": "uint8"
        }
      ],
      "name": "Initialized",
      "type": "event"
    },
    {
      "anonymous": false,
      "inputs": [
        {
          "indexed": true,
          "internalType": "address",
          "name": "previousOwner",
          "type": "address"
        },
        {
          "indexed": true,
          "internalType": "address",
          "name": "newOwner",
          "type": "address"
        }
      ],
      "name": "OwnershipTransferred",
      "type": "event"
    },
    {
      "anonymous": false,
      "inputs": [
        {
          "indexed": true,
          "internalType": "address",
          "name": "from",
          "type": "address"
        },
        {
          "indexed": true,
          "internalType": "address",
          "name": "to",
          "type": "address"
        },
        {
          "indexed": true,
          "internalType": "uint256",
          "name": "tokenId",
          "type": "uint256"
        }
      ],
      "name": "Transfer",
      "type": "event"
    },
    {
      "inputs": [
        {
          "internalType": "uint256",
          "name": "_planetId",
          "type": "uint256"
        },
        {
          "internalType": "uint256",
          "name": "_resourceId",
          "type": "uint256"
        },
        {
          "internalType": "uint256",
          "name": "_boost",
          "type": "uint256"
        }
      ],
      "name": "addBoost",
      "outputs": [],
      "stateMutability": "nonpayable",
      "type": "function"
    },
    {
      "inputs": [
        {
          "internalType": "uint256",
          "name": "_planetId",
          "type": "uint256"
        },
        {
          "internalType": "uint256",
          "name": "_buildingId",
          "type": "uint256"
        }
      ],
      "name": "addBuilding",
      "outputs": [],
      "stateMutability": "nonpayable",
      "type": "function"
    },
    {
      "inputs": [
        {
          "internalType": "uint256",
          "name": "_planetId",
          "type": "uint256"
        },
        {
          "internalType": "uint256",
          "name": "_fleetId",
          "type": "uint256"
        }
      ],
      "name": "addFleet",
      "outputs": [],
      "stateMutability": "nonpayable",
      "type": "function"
    },
    {
      "inputs": [
        {
          "internalType": "address",
          "name": "to",
          "type": "address"
        },
        {
          "internalType": "uint256",
          "name": "tokenId",
          "type": "uint256"
        }
      ],
      "name": "approve",
      "outputs": [],
      "stateMutability": "nonpayable",
      "type": "function"
    },
    {
      "inputs": [
        {
          "internalType": "address",
          "name": "owner",
          "type": "address"
        }
      ],
      "name": "balanceOf",
      "outputs": [
        {
          "internalType": "uint256",
          "name": "",
          "type": "uint256"
        }
      ],
      "stateMutability": "view",
      "type": "function"
    },
    {
      "inputs": [],
      "name": "gameDiamond",
      "outputs": [
        {
          "internalType": "address",
          "name": "",
          "type": "address"
        }
      ],
      "stateMutability": "view",
      "type": "function"
    },
    {
      "inputs": [
        {
          "internalType": "uint256",
          "name": "tokenId",
          "type": "uint256"
        }
      ],
      "name": "getApproved",
      "outputs": [
        {
          "internalType": "address",
          "name": "",
          "type": "address"
        }
      ],
      "stateMutability": "view",
      "type": "function"
    },
    {
      "inputs": [
        {
          "internalType": "uint256",
          "name": "_planetId",
          "type": "uint256"
        },
        {
          "internalType": "uint256",
          "name": "_resourceId",
          "type": "uint256"
        }
      ],
      "name": "getBoost",
      "outputs": [
        {
          "internalType": "uint256",
          "name": "",
          "type": "uint256"
        }
      ],
      "stateMutability": "view",
      "type": "function"
    },
    {
      "inputs": [
        {
          "internalType": "uint256",
          "name": "_planetId",
          "type": "uint256"
        },
        {
          "internalType": "uint256",
          "name": "_buildingId",
          "type": "uint256"
        }
      ],
      "name": "getBuildings",
      "outputs": [
        {
          "internalType": "uint256",
          "name": "",
          "type": "uint256"
        }
      ],
      "stateMutability": "view",
      "type": "function"
    },
    {
      "inputs": [
        {
          "internalType": "uint256",
          "name": "_planetId",
          "type": "uint256"
        }
      ],
      "name": "getCoordinates",
      "outputs": [
        {
          "internalType": "uint256",
          "name": "",
          "type": "uint256"
        },
        {
          "internalType": "uint256",
          "name": "",
          "type": "uint256"
        }
      ],
      "stateMutability": "view",
      "type": "function"
    },
    {
      "inputs": [
        {
          "internalType": "uint256",
          "name": "_planetId",
          "type": "uint256"
        },
        {
          "internalType": "uint256",
          "name": "_resourceId",
          "type": "uint256"
        }
      ],
      "name": "getLastClaimed",
      "outputs": [
        {
          "internalType": "uint256",
          "name": "",
          "type": "uint256"
        }
      ],
      "stateMutability": "view",
      "type": "function"
    },
    {
      "inputs": [
        {
          "internalType": "address",
          "name": "_gameDiamond",
          "type": "address"
        }
      ],
      "name": "initialize",
      "outputs": [],
      "stateMutability": "nonpayable",
      "type": "function"
    },
    {
      "inputs": [
        {
          "internalType": "address",
          "name": "owner",
          "type": "address"
        },
        {
          "internalType": "address",
          "name": "operator",
          "type": "address"
        }
      ],
      "name": "isApprovedForAll",
      "outputs": [
        {
          "internalType": "bool",
          "name": "",
          "type": "bool"
        }
      ],
      "stateMutability": "view",
      "type": "function"
    },
    {
      "inputs": [
        {
          "internalType": "uint256",
          "name": "_planetId",
          "type": "uint256"
        },
        {
          "internalType": "uint256",
          "name": "_resourceId",
          "type": "uint256"
        },
        {
          "internalType": "uint256",
          "name": "_amount",
          "type": "uint256"
        }
      ],
      "name": "mineResource",
      "outputs": [],
      "stateMutability": "nonpayable",
      "type": "function"
    },
    {
      "inputs": [
        {
          "components": [
            {
              "internalType": "uint256",
              "name": "coordinateX",
              "type": "uint256"
            },
            {
              "internalType": "uint256",
              "name": "coordinateY",
              "type": "uint256"
            },
            {
              "internalType": "uint256",
              "name": "ethereus",
              "type": "uint256"
            },
            {
              "internalType": "uint256",
              "name": "metal",
              "type": "uint256"
            },
            {
              "internalType": "uint256",
              "name": "crystal",
              "type": "uint256"
            }
          ],
          "internalType": "struct Planets.Planet",
          "name": "_planet",
          "type": "tuple"
        }
      ],
      "name": "mint",
      "outputs": [],
      "stateMutability": "nonpayable",
      "type": "function"
    },
    {
      "inputs": [],
      "name": "name",
      "outputs": [
        {
          "internalType": "string",
          "name": "",
          "type": "string"
        }
      ],
      "stateMutability": "view",
      "type": "function"
    },
    {
      "inputs": [],
      "name": "owner",
      "outputs": [
        {
          "internalType": "address",
          "name": "",
          "type": "address"
        }
      ],
      "stateMutability": "view",
      "type": "function"
    },
    {
      "inputs": [
        {
          "internalType": "uint256",
          "name": "tokenId",
          "type": "uint256"
        }
      ],
      "name": "ownerOf",
      "outputs": [
        {
          "internalType": "address",
          "name": "",
          "type": "address"
        }
      ],
      "stateMutability": "view",
      "type": "function"
    },
    {
      "inputs": [
        {
          "internalType": "uint256",
          "name": "",
          "type": "uint256"
        }
      ],
      "name": "planets",
      "outputs": [
        {
          "internalType": "uint256",
          "name": "coordinateX",
          "type": "uint256"
        },
        {
          "internalType": "uint256",
          "name": "coordinateY",
          "type": "uint256"
        },
        {
          "internalType": "uint256",
          "name": "ethereus",
          "type": "uint256"
        },
        {
          "internalType": "uint256",
          "name": "metal",
          "type": "uint256"
        },
        {
          "internalType": "uint256",
          "name": "crystal",
          "type": "uint256"
        }
      ],
      "stateMutability": "view",
      "type": "function"
    },
    {
      "inputs": [],
      "name": "renounceOwnership",
      "outputs": [],
      "stateMutability": "nonpayable",
      "type": "function"
    },
    {
      "inputs": [
        {
          "internalType": "address",
          "name": "from",
          "type": "address"
        },
        {
          "internalType": "address",
          "name": "to",
          "type": "address"
        },
        {
          "internalType": "uint256",
          "name": "tokenId",
          "type": "uint256"
        }
      ],
      "name": "safeTransferFrom",
      "outputs": [],
      "stateMutability": "nonpayable",
      "type": "function"
    },
    {
      "inputs": [
        {
          "internalType": "address",
          "name": "from",
          "type": "address"
        },
        {
          "internalType": "address",
          "name": "to",
          "type": "address"
        },
        {
          "internalType": "uint256",
          "name": "tokenId",
          "type": "uint256"
        },
        {
          "internalType": "bytes",
          "name": "data",
          "type": "bytes"
        }
      ],
      "name": "safeTransferFrom",
      "outputs": [],
      "stateMutability": "nonpayable",
      "type": "function"
    },
    {
      "inputs": [
        {
          "internalType": "address",
          "name": "_gameDiamond",
          "type": "address"
        }
      ],
      "name": "setAddresses",
      "outputs": [],
      "stateMutability": "nonpayable",
      "type": "function"
    },
    {
      "inputs": [
        {
          "internalType": "address",
          "name": "operator",
          "type": "address"
        },
        {
          "internalType": "bool",
          "name": "approved",
          "type": "bool"
        }
      ],
      "name": "setApprovalForAll",
      "outputs": [],
      "stateMutability": "nonpayable",
      "type": "function"
    },
    {
      "inputs": [
        {
          "internalType": "string",
          "name": "__uri",
          "type": "string"
        }
      ],
      "name": "setUri",
      "outputs": [],
      "stateMutability": "nonpayable",
      "type": "function"
    },
    {
      "inputs": [
        {
          "internalType": "bytes4",
          "name": "interfaceId",
          "type": "bytes4"
        }
      ],
      "name": "supportsInterface",
      "outputs": [
        {
          "internalType": "bool",
          "name": "",
          "type": "bool"
        }
      ],
      "stateMutability": "view",
      "type": "function"
    },
    {
      "inputs": [],
      "name": "symbol",
      "outputs": [
        {
          "internalType": "string",
          "name": "",
          "type": "string"
        }
      ],
      "stateMutability": "view",
      "type": "function"
    },
    {
      "inputs": [
        {
          "internalType": "uint256",
          "name": "index",
          "type": "uint256"
        }
      ],
      "name": "tokenByIndex",
      "outputs": [
        {
          "internalType": "uint256",
          "name": "",
          "type": "uint256"
        }
      ],
      "stateMutability": "view",
      "type": "function"
    },
    {
      "inputs": [
        {
          "internalType": "address",
          "name": "owner",
          "type": "address"
        },
        {
          "internalType": "uint256",
          "name": "index",
          "type": "uint256"
        }
      ],
      "name": "tokenOfOwnerByIndex",
      "outputs": [
        {
          "internalType": "uint256",
          "name": "",
          "type": "uint256"
        }
      ],
      "stateMutability": "view",
      "type": "function"
    },
    {
      "inputs": [
        {
          "internalType": "uint256",
          "name": "tokenId",
          "type": "uint256"
        }
      ],
      "name": "tokenURI",
      "outputs": [
        {
          "internalType": "string",
          "name": "",
          "type": "string"
        }
      ],
      "stateMutability": "view",
      "type": "function"
    },
    {
      "inputs": [],
      "name": "totalSupply",
      "outputs": [
        {
          "internalType": "uint256",
          "name": "",
          "type": "uint256"
        }
      ],
      "stateMutability": "view",
      "type": "function"
    },
    {
      "inputs": [
        {
          "internalType": "address",
          "name": "from",
          "type": "address"
        },
        {
          "internalType": "address",
          "name": "to",
          "type": "address"
        },
        {
          "internalType": "uint256",
          "name": "tokenId",
          "type": "uint256"
        }
      ],
      "name": "transferFrom",
      "outputs": [],
      "stateMutability": "nonpayable",
      "type": "function"
    },
    {
      "inputs": [
        {
          "internalType": "address",
          "name": "newOwner",
          "type": "address"
        }
      ],
      "name": "transferOwnership",
      "outputs": [],
      "stateMutability": "nonpayable",
      "type": "function"
    }
  ],
  "bytecode": "0x608060405234801561001057600080fd5b5061431e806100206000396000f3fe608060405234801561001057600080fd5b50600436106101fb5760003560e01c8063715018a61161011a578063b88d4fde116100ad578063c87b56dd1161007c578063c87b56dd146105e7578063e985e9c514610617578063f2fde38b14610647578063f7c0d44f14610663578063fd6a87fa14610681576101fb565b8063b88d4fde1461054f578063c261a1b91461056b578063c4d66de81461059b578063c833946b146105b7576101fb565b80639ae80029116100e95780639ae80029146104cb5780639b642de1146104fb578063a22cb46514610517578063a826f41114610533576101fb565b8063715018a61461046957806381d3c435146104735780638da5cb5b1461048f57806395d89b41146104ad576101fb565b806326c1e7501161019257806342f2a8541161016157806342f2a854146103bd5780634f6ccce7146103d95780636352211e1461040957806370a0823114610439576101fb565b806326c1e750146103215780632f745c591461035557806332359fe51461038557806342842e0e146103a1576101fb565b80630bf37818116101ce5780630bf378181461029a57806318160ddd146102cb57806320ffe24d146102e957806323b872dd14610305576101fb565b806301ffc9a71461020057806306fdde0314610230578063081812fc1461024e578063095ea7b31461027e575b600080fd5b61021a600480360381019061021591906129c1565b61069d565b6040516102279190612a09565b60405180910390f35b610238610717565b6040516102459190612ab4565b60405180910390f35b61026860048036038101906102639190612b0c565b6107a9565b6040516102759190612b7a565b60405180910390f35b61029860048036038101906102939190612bc1565b6107ef565b005b6102b460048036038101906102af9190612b0c565b610906565b6040516102c2929190612c10565b60405180910390f35b6102d3610940565b6040516102e09190612c39565b60405180910390f35b61030360048036038101906102fe9190612c54565b61094d565b005b61031f600480360381019061031a9190612c94565b610995565b005b61033b60048036038101906103369190612b0c565b6109f5565b60405161034c959493929190612ce7565b60405180910390f35b61036f600480360381019061036a9190612bc1565b610a2b565b60405161037c9190612c39565b60405180910390f35b61039f600480360381019061039a9190612d3a565b610ad0565b005b6103bb60048036038101906103b69190612c94565b610b18565b005b6103d760048036038101906103d29190612db1565b610b38565b005b6103f360048036038101906103ee9190612b0c565b610c11565b6040516104009190612c39565b60405180910390f35b610423600480360381019061041e9190612b0c565b610c82565b6040516104309190612b7a565b60405180910390f35b610453600480360381019061044e9190612dde565b610d33565b6040516104609190612c39565b60405180910390f35b610471610dea565b005b61048d60048036038101906104889190612dde565b610dfe565b005b610497610e4a565b6040516104a49190612b7a565b60405180910390f35b6104b5610e74565b6040516104c29190612ab4565b60405180910390f35b6104e560048036038101906104e09190612c54565b610f06565b6040516104f29190612c39565b60405180910390f35b61051560048036038101906105109190612e70565b610f36565b005b610531600480360381019061052c9190612ee9565b610f55565b005b61054d60048036038101906105489190612d3a565b610f6b565b005b61056960048036038101906105649190613059565b61104e565b005b61058560048036038101906105809190612c54565b6110b0565b6040516105929190612c39565b60405180910390f35b6105b560048036038101906105b09190612dde565b6110df565b005b6105d160048036038101906105cc9190612c54565b6112d3565b6040516105de9190612c39565b60405180910390f35b61060160048036038101906105fc9190612b0c565b611302565b60405161060e9190612ab4565b60405180910390f35b610631600480360381019061062c91906130dc565b61136a565b60405161063e9190612a09565b60405180910390f35b610661600480360381019061065c9190612dde565b6113fe565b005b61066b611481565b6040516106789190612b7a565b60405180910390f35b61069b60048036038101906106969190612c54565b6114a7565b005b60007f780e9d63000000000000000000000000000000000000000000000000000000007bffffffffffffffffffffffffffffffffffffffffffffffffffffffff1916827bffffffffffffffffffffffffffffffffffffffffffffffffffffffff19161480610710575061070f826114ef565b5b9050919050565b6060606580546107269061314b565b80601f01602080910402602001604051908101604052809291908181526020018280546107529061314b565b801561079f5780601f106107745761010080835404028352916020019161079f565b820191906000526020600020905b81548152906001019060200180831161078257829003601f168201915b5050505050905090565b60006107b4826115d1565b6069600083815260200190815260200160002060009054906101000a900473ffffffffffffffffffffffffffffffffffffffff169050919050565b60006107fa82610c82565b90508073ffffffffffffffffffffffffffffffffffffffff168373ffffffffffffffffffffffffffffffffffffffff160361086a576040517f08c379a0000000000000000000000000000000000000000000000000000000008152600401610861906131ee565b60405180910390fd5b8073ffffffffffffffffffffffffffffffffffffffff1661088961161c565b73ffffffffffffffffffffffffffffffffffffffff1614806108b857506108b7816108b261161c565b61136a565b5b6108f7576040517f08c379a00000000000000000000000000000000000000000000000000000000081526004016108ee90613280565b60405180910390fd5b6109018383611624565b505050565b60008060fc60008481526020019081526020016000206000015460fc60008581526020019081526020016000206001015491509150915091565b6000609980549050905090565b6109556116dd565b600160fd60008481526020019081526020016000206000838152602001908152602001600020600082825461098a91906132cf565b925050819055505050565b6109a66109a061161c565b8261175b565b6109e5576040517f08c379a00000000000000000000000000000000000000000000000000000000081526004016109dc90613375565b60405180910390fd5b6109f08383836117f0565b505050565b60fc6020528060005260406000206000915090508060000154908060010154908060020154908060030154908060040154905085565b6000610a3683610d33565b8210610a77576040517f08c379a0000000000000000000000000000000000000000000000000000000008152600401610a6e90613407565b60405180910390fd5b609760008473ffffffffffffffffffffffffffffffffffffffff1673ffffffffffffffffffffffffffffffffffffffff168152602001908152602001600020600083815260200190815260200160002054905092915050565b610ad86116dd565b8060ff600085815260200190815260200160002060008481526020019081526020016000206000828254610b0c91906132cf565b92505081905550505050565b610b338383836040518060200160405280600081525061104e565b505050565b60fb60009054906101000a900473ffffffffffffffffffffffffffffffffffffffff1673ffffffffffffffffffffffffffffffffffffffff163373ffffffffffffffffffffffffffffffffffffffff1614610bc8576040517f08c379a0000000000000000000000000000000000000000000000000000000008152600401610bbf90613473565b60405180910390fd5b60006001610bd4610940565b610bde91906132cf565b90508160fc60008381526020019081526020016000208181610c0091906135fa565b905050610c0d3382611a56565b5050565b6000610c1b610940565b8210610c5c576040517f08c379a0000000000000000000000000000000000000000000000000000000008152600401610c539061367a565b60405180910390fd5b60998281548110610c7057610c6f61369a565b5b90600052602060002001549050919050565b6000806067600084815260200190815260200160002060009054906101000a900473ffffffffffffffffffffffffffffffffffffffff169050600073ffffffffffffffffffffffffffffffffffffffff168173ffffffffffffffffffffffffffffffffffffffff1603610d2a576040517f08c379a0000000000000000000000000000000000000000000000000000000008152600401610d2190613715565b60405180910390fd5b80915050919050565b60008073ffffffffffffffffffffffffffffffffffffffff168273ffffffffffffffffffffffffffffffffffffffff1603610da3576040517f08c379a0000000000000000000000000000000000000000000000000000000008152600401610d9a906137a7565b60405180910390fd5b606860008373ffffffffffffffffffffffffffffffffffffffff1673ffffffffffffffffffffffffffffffffffffffff168152602001908152602001600020549050919050565b610df26116dd565b610dfc6000611a74565b565b610e066116dd565b8060fb60006101000a81548173ffffffffffffffffffffffffffffffffffffffff021916908373ffffffffffffffffffffffffffffffffffffffff16021790555050565b600060c960009054906101000a900473ffffffffffffffffffffffffffffffffffffffff16905090565b606060668054610e839061314b565b80601f0160208091040260200160405190810160405280929190818152602001828054610eaf9061314b565b8015610efc5780601f10610ed157610100808354040283529160200191610efc565b820191906000526020600020905b815481529060010190602001808311610edf57829003601f168201915b5050505050905090565b60006101006000848152602001908152602001600020600083815260200190815260200160002054905092915050565b610f3e6116dd565b81816101019182610f50929190613948565b505050565b610f67610f6061161c565b8383611b3a565b5050565b610f736116dd565b60008203610fad578060fc60008581526020019081526020016000206003016000828254610fa19190613a18565b9250508190555061101f565b60018203610fe7578060fc60008581526020019081526020016000206004016000828254610fdb9190613a18565b9250508190555061101e565b6002820361101d578060fc600085815260200190815260200160002060020160008282546110159190613a18565b925050819055505b5b5b426101006000858152602001908152602001600020600084815260200190815260200160002081905550505050565b61105f61105961161c565b8361175b565b61109e576040517f08c379a000000000000000000000000000000000000000000000000000000000815260040161109590613375565b60405180910390fd5b6110aa84848484611ca6565b50505050565b600060fe6000848152602001908152602001600020600083815260200190815260200160002054905092915050565b60008060019054906101000a900460ff161590508080156111105750600160008054906101000a900460ff1660ff16105b8061113d575061111f30611d02565b15801561113c5750600160008054906101000a900460ff1660ff16145b5b61117c576040517f08c379a000000000000000000000000000000000000000000000000000000000815260040161117390613abe565b60405180910390fd5b60016000806101000a81548160ff021916908360ff16021790555080156111b9576001600060016101000a81548160ff0219169083151502179055505b61122d6040518060400160405280600781526020017f506c616e657473000000000000000000000000000000000000000000000000008152506040518060400160405280600381526020017f504c4e0000000000000000000000000000000000000000000000000000000000815250611d25565b611235611d82565b8160fb60006101000a81548173ffffffffffffffffffffffffffffffffffffffff021916908373ffffffffffffffffffffffffffffffffffffffff16021790555080156112cf5760008060016101000a81548160ff0219169083151502179055507f7f26b83ff96e1f2b6a682f133852f6798a09c465da95921460cefb384740249860016040516112c69190613b26565b60405180910390a15b5050565b600060ff6000848152602001908152602001600020600083815260200190815260200160002054905092915050565b606061130d826115d1565b6000611317611ddb565b905060008151116113375760405180602001604052806000815250611362565b8061134184611e6e565b604051602001611352929190613b7d565b6040516020818303038152906040525b915050919050565b6000606a60008473ffffffffffffffffffffffffffffffffffffffff1673ffffffffffffffffffffffffffffffffffffffff16815260200190815260200160002060008373ffffffffffffffffffffffffffffffffffffffff1673ffffffffffffffffffffffffffffffffffffffff16815260200190815260200160002060009054906101000a900460ff16905092915050565b6114066116dd565b600073ffffffffffffffffffffffffffffffffffffffff168173ffffffffffffffffffffffffffffffffffffffff1603611475576040517f08c379a000000000000000000000000000000000000000000000000000000000815260040161146c90613c13565b60405180910390fd5b61147e81611a74565b50565b60fb60009054906101000a900473ffffffffffffffffffffffffffffffffffffffff1681565b6114af6116dd565b600160fe6000848152602001908152602001600020600083815260200190815260200160002060008282546114e491906132cf565b925050819055505050565b60007f80ac58cd000000000000000000000000000000000000000000000000000000007bffffffffffffffffffffffffffffffffffffffffffffffffffffffff1916827bffffffffffffffffffffffffffffffffffffffffffffffffffffffff191614806115ba57507f5b5e139f000000000000000000000000000000000000000000000000000000007bffffffffffffffffffffffffffffffffffffffffffffffffffffffff1916827bffffffffffffffffffffffffffffffffffffffffffffffffffffffff1916145b806115ca57506115c982611fce565b5b9050919050565b6115da81612038565b611619576040517f08c379a000000000000000000000000000000000000000000000000000000000815260040161161090613715565b60405180910390fd5b50565b600033905090565b816069600083815260200190815260200160002060006101000a81548173ffffffffffffffffffffffffffffffffffffffff021916908373ffffffffffffffffffffffffffffffffffffffff160217905550808273ffffffffffffffffffffffffffffffffffffffff1661169783610c82565b73ffffffffffffffffffffffffffffffffffffffff167f8c5be1e5ebec7d5bd14f71427d1e84f3dd0314c0f7b2291e5b200ac8c7c3b92560405160405180910390a45050565b6116e561161c565b73ffffffffffffffffffffffffffffffffffffffff16611703610e4a565b73ffffffffffffffffffffffffffffffffffffffff1614611759576040517f08c379a000000000000000000000000000000000000000000000000000000000815260040161175090613c7f565b60405180910390fd5b565b60008061176783610c82565b90508073ffffffffffffffffffffffffffffffffffffffff168473ffffffffffffffffffffffffffffffffffffffff1614806117a957506117a8818561136a565b5b806117e757508373ffffffffffffffffffffffffffffffffffffffff166117cf846107a9565b73ffffffffffffffffffffffffffffffffffffffff16145b91505092915050565b8273ffffffffffffffffffffffffffffffffffffffff1661181082610c82565b73ffffffffffffffffffffffffffffffffffffffff1614611866576040517f08c379a000000000000000000000000000000000000000000000000000000000815260040161185d90613d11565b60405180910390fd5b600073ffffffffffffffffffffffffffffffffffffffff168273ffffffffffffffffffffffffffffffffffffffff16036118d5576040517f08c379a00000000000000000000000000000000000000000000000000000000081526004016118cc90613da3565b60405180910390fd5b6118e08383836120a4565b6118eb600082611624565b6001606860008573ffffffffffffffffffffffffffffffffffffffff1673ffffffffffffffffffffffffffffffffffffffff168152602001908152602001600020600082825461193b9190613a18565b925050819055506001606860008473ffffffffffffffffffffffffffffffffffffffff1673ffffffffffffffffffffffffffffffffffffffff168152602001908152602001600020600082825461199291906132cf565b92505081905550816067600083815260200190815260200160002060006101000a81548173ffffffffffffffffffffffffffffffffffffffff021916908373ffffffffffffffffffffffffffffffffffffffff160217905550808273ffffffffffffffffffffffffffffffffffffffff168473ffffffffffffffffffffffffffffffffffffffff167fddf252ad1be2c89b69c2b068fc378daa952ba7f163c4a11628f55a4df523b3ef60405160405180910390a4611a518383836121b6565b505050565b611a708282604051806020016040528060008152506121bb565b5050565b600060c960009054906101000a900473ffffffffffffffffffffffffffffffffffffffff1690508160c960006101000a81548173ffffffffffffffffffffffffffffffffffffffff021916908373ffffffffffffffffffffffffffffffffffffffff1602179055508173ffffffffffffffffffffffffffffffffffffffff168173ffffffffffffffffffffffffffffffffffffffff167f8be0079c531659141344cd1fd0a4f28419497f9722a3daafe3b4186f6b6457e060405160405180910390a35050565b8173ffffffffffffffffffffffffffffffffffffffff168373ffffffffffffffffffffffffffffffffffffffff1603611ba8576040517f08c379a0000000000000000000000000000000000000000000000000000000008152600401611b9f90613e0f565b60405180910390fd5b80606a60008573ffffffffffffffffffffffffffffffffffffffff1673ffffffffffffffffffffffffffffffffffffffff16815260200190815260200160002060008473ffffffffffffffffffffffffffffffffffffffff1673ffffffffffffffffffffffffffffffffffffffff16815260200190815260200160002060006101000a81548160ff0219169083151502179055508173ffffffffffffffffffffffffffffffffffffffff168373ffffffffffffffffffffffffffffffffffffffff167f17307eab39ab6107e8899845ad3d59bd9653f200f220920489ca2b5937696c3183604051611c999190612a09565b60405180910390a3505050565b611cb18484846117f0565b611cbd84848484612216565b611cfc576040517f08c379a0000000000000000000000000000000000000000000000000000000008152600401611cf390613ea1565b60405180910390fd5b50505050565b6000808273ffffffffffffffffffffffffffffffffffffffff163b119050919050565b600060019054906101000a900460ff16611d74576040517f08c379a0000000000000000000000000000000000000000000000000000000008152600401611d6b90613f33565b60405180910390fd5b611d7e828261239d565b5050565b600060019054906101000a900460ff16611dd1576040517f08c379a0000000000000000000000000000000000000000000000000000000008152600401611dc890613f33565b60405180910390fd5b611dd9612410565b565b60606101018054611deb9061314b565b80601f0160208091040260200160405190810160405280929190818152602001828054611e179061314b565b8015611e645780601f10611e3957610100808354040283529160200191611e64565b820191906000526020600020905b815481529060010190602001808311611e4757829003601f168201915b5050505050905090565b606060008203611eb5576040518060400160405280600181526020017f30000000000000000000000000000000000000000000000000000000000000008152509050611fc9565b600082905060005b60008214611ee7578080611ed090613f53565b915050600a82611ee09190613fca565b9150611ebd565b60008167ffffffffffffffff811115611f0357611f02612f2e565b5b6040519080825280601f01601f191660200182016040528015611f355781602001600182028036833780820191505090505b5090505b60008514611fc257600182611f4e9190613a18565b9150600a85611f5d9190613ffb565b6030611f6991906132cf565b60f81b818381518110611f7f57611f7e61369a565b5b60200101907effffffffffffffffffffffffffffffffffffffffffffffffffffffffffffff1916908160001a905350600a85611fbb9190613fca565b9450611f39565b8093505050505b919050565b60007f01ffc9a7000000000000000000000000000000000000000000000000000000007bffffffffffffffffffffffffffffffffffffffffffffffffffffffff1916827bffffffffffffffffffffffffffffffffffffffffffffffffffffffff1916149050919050565b60008073ffffffffffffffffffffffffffffffffffffffff166067600084815260200190815260200160002060009054906101000a900473ffffffffffffffffffffffffffffffffffffffff1673ffffffffffffffffffffffffffffffffffffffff1614159050919050565b6120af838383612471565b600073ffffffffffffffffffffffffffffffffffffffff168373ffffffffffffffffffffffffffffffffffffffff16036120f1576120ec81612476565b612130565b8173ffffffffffffffffffffffffffffffffffffffff168373ffffffffffffffffffffffffffffffffffffffff161461212f5761212e83826124bf565b5b5b600073ffffffffffffffffffffffffffffffffffffffff168273ffffffffffffffffffffffffffffffffffffffff16036121725761216d8161262c565b6121b1565b8273ffffffffffffffffffffffffffffffffffffffff168273ffffffffffffffffffffffffffffffffffffffff16146121b0576121af82826126fd565b5b5b505050565b505050565b6121c5838361277c565b6121d26000848484612216565b612211576040517f08c379a000000000000000000000000000000000000000000000000000000000815260040161220890613ea1565b60405180910390fd5b505050565b60006122378473ffffffffffffffffffffffffffffffffffffffff16611d02565b15612390578373ffffffffffffffffffffffffffffffffffffffff1663150b7a0261226061161c565b8786866040518563ffffffff1660e01b81526004016122829493929190614081565b6020604051808303816000875af19250505080156122be57506040513d601f19601f820116820180604052508101906122bb91906140e2565b60015b612340573d80600081146122ee576040519150601f19603f3d011682016040523d82523d6000602084013e6122f3565b606091505b506000815103612338576040517f08c379a000000000000000000000000000000000000000000000000000000000815260040161232f90613ea1565b60405180910390fd5b805181602001fd5b63150b7a0260e01b7bffffffffffffffffffffffffffffffffffffffffffffffffffffffff1916817bffffffffffffffffffffffffffffffffffffffffffffffffffffffff191614915050612395565b600190505b949350505050565b600060019054906101000a900460ff166123ec576040517f08c379a00000000000000000000000000000000000000000000000000000000081526004016123e390613f33565b60405180910390fd5b81606590816123fb919061410f565b50806066908161240b919061410f565b505050565b600060019054906101000a900460ff1661245f576040517f08c379a000000000000000000000000000000000000000000000000000000000815260040161245690613f33565b60405180910390fd5b61246f61246a61161c565b611a74565b565b505050565b609980549050609a600083815260200190815260200160002081905550609981908060018154018082558091505060019003906000526020600020016000909190919091505550565b600060016124cc84610d33565b6124d69190613a18565b90506000609860008481526020019081526020016000205490508181146125bb576000609760008673ffffffffffffffffffffffffffffffffffffffff1673ffffffffffffffffffffffffffffffffffffffff168152602001908152602001600020600084815260200190815260200160002054905080609760008773ffffffffffffffffffffffffffffffffffffffff1673ffffffffffffffffffffffffffffffffffffffff168152602001908152602001600020600084815260200190815260200160002081905550816098600083815260200190815260200160002081905550505b6098600084815260200190815260200160002060009055609760008573ffffffffffffffffffffffffffffffffffffffff1673ffffffffffffffffffffffffffffffffffffffff16815260200190815260200160002060008381526020019081526020016000206000905550505050565b600060016099805490506126409190613a18565b90506000609a60008481526020019081526020016000205490506000609983815481106126705761266f61369a565b5b9060005260206000200154905080609983815481106126925761269161369a565b5b906000526020600020018190555081609a600083815260200190815260200160002081905550609a60008581526020019081526020016000206000905560998054806126e1576126e06141e1565b5b6001900381819060005260206000200160009055905550505050565b600061270883610d33565b905081609760008573ffffffffffffffffffffffffffffffffffffffff1673ffffffffffffffffffffffffffffffffffffffff168152602001908152602001600020600083815260200190815260200160002081905550806098600084815260200190815260200160002081905550505050565b600073ffffffffffffffffffffffffffffffffffffffff168273ffffffffffffffffffffffffffffffffffffffff16036127eb576040517f08c379a00000000000000000000000000000000000000000000000000000000081526004016127e29061425c565b60405180910390fd5b6127f481612038565b15612834576040517f08c379a000000000000000000000000000000000000000000000000000000000815260040161282b906142c8565b60405180910390fd5b612840600083836120a4565b6001606860008473ffffffffffffffffffffffffffffffffffffffff1673ffffffffffffffffffffffffffffffffffffffff168152602001908152602001600020600082825461289091906132cf565b92505081905550816067600083815260200190815260200160002060006101000a81548173ffffffffffffffffffffffffffffffffffffffff021916908373ffffffffffffffffffffffffffffffffffffffff160217905550808273ffffffffffffffffffffffffffffffffffffffff16600073ffffffffffffffffffffffffffffffffffffffff167fddf252ad1be2c89b69c2b068fc378daa952ba7f163c4a11628f55a4df523b3ef60405160405180910390a4612951600083836121b6565b5050565b6000604051905090565b600080fd5b600080fd5b60007fffffffff0000000000000000000000000000000000000000000000000000000082169050919050565b61299e81612969565b81146129a957600080fd5b50565b6000813590506129bb81612995565b92915050565b6000602082840312156129d7576129d661295f565b5b60006129e5848285016129ac565b91505092915050565b60008115159050919050565b612a03816129ee565b82525050565b6000602082019050612a1e60008301846129fa565b92915050565b600081519050919050565b600082825260208201905092915050565b60005b83811015612a5e578082015181840152602081019050612a43565b60008484015250505050565b6000601f19601f8301169050919050565b6000612a8682612a24565b612a908185612a2f565b9350612aa0818560208601612a40565b612aa981612a6a565b840191505092915050565b60006020820190508181036000830152612ace8184612a7b565b905092915050565b6000819050919050565b612ae981612ad6565b8114612af457600080fd5b50565b600081359050612b0681612ae0565b92915050565b600060208284031215612b2257612b2161295f565b5b6000612b3084828501612af7565b91505092915050565b600073ffffffffffffffffffffffffffffffffffffffff82169050919050565b6000612b6482612b39565b9050919050565b612b7481612b59565b82525050565b6000602082019050612b8f6000830184612b6b565b92915050565b612b9e81612b59565b8114612ba957600080fd5b50565b600081359050612bbb81612b95565b92915050565b60008060408385031215612bd857612bd761295f565b5b6000612be685828601612bac565b9250506020612bf785828601612af7565b9150509250929050565b612c0a81612ad6565b82525050565b6000604082019050612c256000830185612c01565b612c326020830184612c01565b9392505050565b6000602082019050612c4e6000830184612c01565b92915050565b60008060408385031215612c6b57612c6a61295f565b5b6000612c7985828601612af7565b9250506020612c8a85828601612af7565b9150509250929050565b600080600060608486031215612cad57612cac61295f565b5b6000612cbb86828701612bac565b9350506020612ccc86828701612bac565b9250506040612cdd86828701612af7565b9150509250925092565b600060a082019050612cfc6000830188612c01565b612d096020830187612c01565b612d166040830186612c01565b612d236060830185612c01565b612d306080830184612c01565b9695505050505050565b600080600060608486031215612d5357612d5261295f565b5b6000612d6186828701612af7565b9350506020612d7286828701612af7565b9250506040612d8386828701612af7565b9150509250925092565b600080fd5b600060a08284031215612da857612da7612d8d565b5b81905092915050565b600060a08284031215612dc757612dc661295f565b5b6000612dd584828501612d92565b91505092915050565b600060208284031215612df457612df361295f565b5b6000612e0284828501612bac565b91505092915050565b600080fd5b600080fd5b600080fd5b60008083601f840112612e3057612e2f612e0b565b5b8235905067ffffffffffffffff811115612e4d57612e4c612e10565b5b602083019150836001820283011115612e6957612e68612e15565b5b9250929050565b60008060208385031215612e8757612e8661295f565b5b600083013567ffffffffffffffff811115612ea557612ea4612964565b5b612eb185828601612e1a565b92509250509250929050565b612ec6816129ee565b8114612ed157600080fd5b50565b600081359050612ee381612ebd565b92915050565b60008060408385031215612f0057612eff61295f565b5b6000612f0e85828601612bac565b9250506020612f1f85828601612ed4565b9150509250929050565b600080fd5b7f4e487b7100000000000000000000000000000000000000000000000000000000600052604160045260246000fd5b612f6682612a6a565b810181811067ffffffffffffffff82111715612f8557612f84612f2e565b5b80604052505050565b6000612f98612955565b9050612fa48282612f5d565b919050565b600067ffffffffffffffff821115612fc457612fc3612f2e565b5b612fcd82612a6a565b9050602081019050919050565b82818337600083830152505050565b6000612ffc612ff784612fa9565b612f8e565b90508281526020810184848401111561301857613017612f29565b5b613023848285612fda565b509392505050565b600082601f8301126130405761303f612e0b565b5b8135613050848260208601612fe9565b91505092915050565b600080600080608085870312156130735761307261295f565b5b600061308187828801612bac565b945050602061309287828801612bac565b93505060406130a387828801612af7565b925050606085013567ffffffffffffffff8111156130c4576130c3612964565b5b6130d08782880161302b565b91505092959194509250565b600080604083850312156130f3576130f261295f565b5b600061310185828601612bac565b925050602061311285828601612bac565b9150509250929050565b7f4e487b7100000000000000000000000000000000000000000000000000000000600052602260045260246000fd5b6000600282049050600182168061316357607f821691505b6020821081036131765761317561311c565b5b50919050565b7f4552433732313a20617070726f76616c20746f2063757272656e74206f776e6560008201527f7200000000000000000000000000000000000000000000000000000000000000602082015250565b60006131d8602183612a2f565b91506131e38261317c565b604082019050919050565b60006020820190508181036000830152613207816131cb565b9050919050565b7f4552433732313a20617070726f76652063616c6c6572206973206e6f7420746f60008201527f6b656e206f776e6572206e6f7220617070726f76656420666f7220616c6c0000602082015250565b600061326a603e83612a2f565b91506132758261320e565b604082019050919050565b600060208201905081810360008301526132998161325d565b9050919050565b7f4e487b7100000000000000000000000000000000000000000000000000000000600052601160045260246000fd5b60006132da82612ad6565b91506132e583612ad6565b92508282019050808211156132fd576132fc6132a0565b5b92915050565b7f4552433732313a2063616c6c6572206973206e6f7420746f6b656e206f776e6560008201527f72206e6f7220617070726f766564000000000000000000000000000000000000602082015250565b600061335f602e83612a2f565b915061336a82613303565b604082019050919050565b6000602082019050818103600083015261338e81613352565b9050919050565b7f455243373231456e756d657261626c653a206f776e657220696e646578206f7560008201527f74206f6620626f756e6473000000000000000000000000000000000000000000602082015250565b60006133f1602b83612a2f565b91506133fc82613395565b604082019050919050565b60006020820190508181036000830152613420816133e4565b9050919050565b7f4275696c64696e67733a20726573747269637465640000000000000000000000600082015250565b600061345d601583612a2f565b915061346882613427565b602082019050919050565b6000602082019050818103600083015261348c81613450565b9050919050565b600081356134a081612ae0565b80915050919050565b60008160001b9050919050565b60007fffffffffffffffffffffffffffffffffffffffffffffffffffffffffffffffff6134e2846134a9565b9350801983169250808416831791505092915050565b6000819050919050565b600061351d61351861351384612ad6565b6134f8565b612ad6565b9050919050565b6000819050919050565b61353782613502565b61354a61354382613524565b83546134b6565b8255505050565b60008101600083018061356381613493565b905061356f818461352e565b50505060018101602083018061358481613493565b9050613590818461352e565b5050506002810160408301806135a581613493565b90506135b1818461352e565b5050506003810160608301806135c681613493565b90506135d2818461352e565b5050506004810160808301806135e781613493565b90506135f3818461352e565b5050505050565b6136048282613551565b5050565b7f455243373231456e756d657261626c653a20676c6f62616c20696e646578206f60008201527f7574206f6620626f756e64730000000000000000000000000000000000000000602082015250565b6000613664602c83612a2f565b915061366f82613608565b604082019050919050565b6000602082019050818103600083015261369381613657565b9050919050565b7f4e487b7100000000000000000000000000000000000000000000000000000000600052603260045260246000fd5b7f4552433732313a20696e76616c696420746f6b656e2049440000000000000000600082015250565b60006136ff601883612a2f565b915061370a826136c9565b602082019050919050565b6000602082019050818103600083015261372e816136f2565b9050919050565b7f4552433732313a2061646472657373207a65726f206973206e6f74206120766160008201527f6c6964206f776e65720000000000000000000000000000000000000000000000602082015250565b6000613791602983612a2f565b915061379c82613735565b604082019050919050565b600060208201905081810360008301526137c081613784565b9050919050565b600082905092915050565b60008190508160005260206000209050919050565b60006020601f8301049050919050565b600082821b905092915050565b6000600883026138347fffffffffffffffffffffffffffffffffffffffffffffffffffffffffffffffff826137f7565b61383e86836137f7565b95508019841693508086168417925050509392505050565b61385f83613502565b61387361386b82613524565b848454613804565b825550505050565b600090565b61388861387b565b613893818484613856565b505050565b5b818110156138b7576138ac600082613880565b600181019050613899565b5050565b601f8211156138fc576138cd816137d2565b6138d6846137e7565b810160208510156138e5578190505b6138f96138f1856137e7565b830182613898565b50505b505050565b600082821c905092915050565b600061391f60001984600802613901565b1980831691505092915050565b6000613938838361390e565b9150826002028217905092915050565b61395283836137c7565b67ffffffffffffffff81111561396b5761396a612f2e565b5b613975825461314b565b6139808282856138bb565b6000601f8311600181146139af576000841561399d578287013590505b6139a7858261392c565b865550613a0f565b601f1984166139bd866137d2565b60005b828110156139e5578489013582556001820191506020850194506020810190506139c0565b86831015613a0257848901356139fe601f89168261390e565b8355505b6001600288020188555050505b50505050505050565b6000613a2382612ad6565b9150613a2e83612ad6565b9250828203905081811115613a4657613a456132a0565b5b92915050565b7f496e697469616c697a61626c653a20636f6e747261637420697320616c72656160008201527f647920696e697469616c697a6564000000000000000000000000000000000000602082015250565b6000613aa8602e83612a2f565b9150613ab382613a4c565b604082019050919050565b60006020820190508181036000830152613ad781613a9b565b9050919050565b6000819050919050565b600060ff82169050919050565b6000613b10613b0b613b0684613ade565b6134f8565b613ae8565b9050919050565b613b2081613af5565b82525050565b6000602082019050613b3b6000830184613b17565b92915050565b600081905092915050565b6000613b5782612a24565b613b618185613b41565b9350613b71818560208601612a40565b80840191505092915050565b6000613b898285613b4c565b9150613b958284613b4c565b91508190509392505050565b7f4f776e61626c653a206e6577206f776e657220697320746865207a65726f206160008201527f6464726573730000000000000000000000000000000000000000000000000000602082015250565b6000613bfd602683612a2f565b9150613c0882613ba1565b604082019050919050565b60006020820190508181036000830152613c2c81613bf0565b9050919050565b7f4f776e61626c653a2063616c6c6572206973206e6f7420746865206f776e6572600082015250565b6000613c69602083612a2f565b9150613c7482613c33565b602082019050919050565b60006020820190508181036000830152613c9881613c5c565b9050919050565b7f4552433732313a207472616e736665722066726f6d20696e636f72726563742060008201527f6f776e6572000000000000000000000000000000000000000000000000000000602082015250565b6000613cfb602583612a2f565b9150613d0682613c9f565b604082019050919050565b60006020820190508181036000830152613d2a81613cee565b9050919050565b7f4552433732313a207472616e7366657220746f20746865207a65726f2061646460008201527f7265737300000000000000000000000000000000000000000000000000000000602082015250565b6000613d8d602483612a2f565b9150613d9882613d31565b604082019050919050565b60006020820190508181036000830152613dbc81613d80565b9050919050565b7f4552433732313a20617070726f766520746f2063616c6c657200000000000000600082015250565b6000613df9601983612a2f565b9150613e0482613dc3565b602082019050919050565b60006020820190508181036000830152613e2881613dec565b9050919050565b7f4552433732313a207472616e7366657220746f206e6f6e20455243373231526560008201527f63656976657220696d706c656d656e7465720000000000000000000000000000602082015250565b6000613e8b603283612a2f565b9150613e9682613e2f565b604082019050919050565b60006020820190508181036000830152613eba81613e7e565b9050919050565b7f496e697469616c697a61626c653a20636f6e7472616374206973206e6f74206960008201527f6e697469616c697a696e67000000000000000000000000000000000000000000602082015250565b6000613f1d602b83612a2f565b9150613f2882613ec1565b604082019050919050565b60006020820190508181036000830152613f4c81613f10565b9050919050565b6000613f5e82612ad6565b91507fffffffffffffffffffffffffffffffffffffffffffffffffffffffffffffffff8203613f9057613f8f6132a0565b5b600182019050919050565b7f4e487b7100000000000000000000000000000000000000000000000000000000600052601260045260246000fd5b6000613fd582612ad6565b9150613fe083612ad6565b925082613ff057613fef613f9b565b5b828204905092915050565b600061400682612ad6565b915061401183612ad6565b92508261402157614020613f9b565b5b828206905092915050565b600081519050919050565b600082825260208201905092915050565b60006140538261402c565b61405d8185614037565b935061406d818560208601612a40565b61407681612a6a565b840191505092915050565b60006080820190506140966000830187612b6b565b6140a36020830186612b6b565b6140b06040830185612c01565b81810360608301526140c28184614048565b905095945050505050565b6000815190506140dc81612995565b92915050565b6000602082840312156140f8576140f761295f565b5b6000614106848285016140cd565b91505092915050565b61411882612a24565b67ffffffffffffffff81111561413157614130612f2e565b5b61413b825461314b565b6141468282856138bb565b600060209050601f8311600181146141795760008415614167578287015190505b614171858261392c565b8655506141d9565b601f198416614187866137d2565b60005b828110156141af5784890151825560018201915060208501945060208101905061418a565b868310156141cc57848901516141c8601f89168261390e565b8355505b6001600288020188555050505b505050505050565b7f4e487b7100000000000000000000000000000000000000000000000000000000600052603160045260246000fd5b7f4552433732313a206d696e7420746f20746865207a65726f2061646472657373600082015250565b6000614246602083612a2f565b915061425182614210565b602082019050919050565b6000602082019050818103600083015261427581614239565b9050919050565b7f4552433732313a20746f6b656e20616c7265616479206d696e74656400000000600082015250565b60006142b2601c83612a2f565b91506142bd8261427c565b602082019050919050565b600060208201905081810360008301526142e1816142a5565b905091905056fea26469706673582212209e673376bdb8fa3387ec2fb03fdbb05b1b6b71877505fe8f6711e287633a81fd64736f6c63430008110033",
  "linkReferences": {},
  "deployedLinkReferences": {}
}